:100000000C9415070C945C070C945C070C945C072B
:100010000C945C070C945C070C945C070C945C07D4
:100020000C945C070C945C070C9454280C942629BF
:100030000C94C4220C945C070C945C070C945C0731
:100040000C945C070C945C070C945C070C945C07A4
:100050000C945C070C942C230C945C070C945C07A8
:100060000C945C070C945C070C945C070C945C0784
:100070000C945C070C945C070C945C070C945C0774
:100080000C945C070C945C070C945C070C945C0764
:100090000C945C070C945C070C945C070C945C0754
:1000A0000C945C070C945C070C945C076C0A6E0A59
:1000B000790A700A720A740A760A780A7B0A7D0A3B
:1000C0007F0A8A0A810A830A850A870A890A8C0AB2
:1000D000EC18EC181E191E19AF1AAF1AAF1AAF1A86
:1000E0005C19AF1A091A091A7B1A841AAF1AA81ACE
:1000F000161A161A161A161A161A161A161A161A80
:10010000161A161A161A161A161A161A161A161A6F
:10011000271A351A3C1A431A4D1A321B321B441B3C
:10012000441B3B1B441B441B441B321B321B401B08
:10013000441B441B401B9329BA29AC2ABA29AC2A78
:10014000062A292AAC2A7F2A8E2A07634236B79BC1
:10015000D8A71A39685618AEBAAB558C1D3CB7CC27
:100160005763BD6DEDFD753EF6177231BF0000009F
:10017000803F05A84CCDB2D44EB93836A9020C50F8
:10018000B9918688083CA6AAAA2ABE000000803F32
:1001900060007E00013B00014A024A01E1012002A9
:1001A0002002E10001E20150025002E20001E201FE
:1001B0004F024F02E20001E20150025002E2002928
:1001C000001E001F00200021002200230024002523
:1001D00000260027002D002E0000002A002B000022
:1001E0000014001A000800150017001C0018000C6D
:1001F00000120013002F00300031000151000004F4
:10020000001600070009000A000B000D000E000F89
:10021000003300340028000000E10000001D001B36
:1002200000060019000500110010003600370038E4
:1002300000E500E5005200E000E2000000E30000FD
:100240000000002C00000000000000E600015150FA
:100250000051004F0035003A003B003C003D003E9D
:10026000003F0040004100420043004400450001BF
:10027000004C00010000004A0052004D004B0001FC
:1002800000010000304B0001300100C65CC35CC2BD
:100290005C01000000500051004F004E00010003BF
:1002A000304A004E004D000100CD5C3900000001D5
:1002B00000010001000100010001006A006900A8BE
:1002C00000AA00A9000100010001000100010001D5
:1002D000000000010001000000010000000100001A
:1002E00000010001004A0001004D00010001000171
:1002F00000010001000100010001000100010001F6
:1003000000010001000100010001000000010001E6
:1003100000010001000100010001000100010001D5
:1003200000010001000100010000000100010001C6
:1003300000010001000100010001000100010001B5
:1003400000010000000100010001000100010001A6
:100350000001000100010001000100010001000195
:100360000001000100010000000100010000000187
:100370000000000100000001000100010001000177
:100380000001000100010001000100010001000165
:100390000001000100010001000100010001000155
:1003A0000000000100010001000100010001000146
:1003B0000001000100010001000100010001000036
:1003C0000001000100010001000100010001000125
:1003D0000001000100010001000000010001000116
:1003E0000001000100010001000100010001000105
:1003F00000010001000100010001000100000001F6
:1004000000010000000100000001000000010001E7
:1004100000010001000100010001000100010001D4
:1004200000010001000100010001000100010001C4
:1004300000010001000100000001000100010001B5
:1004400000010001000100010001000100010001A4
:100450000001000100000001000100010001000195
:100460000001000100010001000100010001000085
:100470000001000100010001000100010001000174
:100480000001000100010001000100010001000164
:100490000001000000010001000000010000000157
:1004A0000000000100010001000100010001000145
:1004B0000001000100010001000100010001000134
:1004C0000001000100010001000100010000000125
:1004D0000001000100010001000100010001000114
:1004E0000001000100010001000100000001000105
:1004F00000010001000100010001000100010001F4
:1005000000010001000000010001000100010001E4
:1005100000010001000100010001000100010001D3
:1005200000010001000100010000000100010000C5
:1005300000010000000100000001000100010001B5
:1005400000010001000100010001000100010001A3
:100550000001000100010001000100010001000193
:100560000001000000010001000100010001000184
:100570000001000100010001000100010001000173
:100580000000000100010001000100010001000164
:100590000001000100010001000100000001000154
:1005A0000001000100010001000100010001000143
:1005B0000001000100010001000100010001000034
:1005C0000001000100000001000000010000000126
:1005D0000001000100010001000100010001000113
:1005E0000001000100010001000100010001000103
:1005F00000010001000100010000000100010001F4
:1006000000010001000100010001000100010001E2
:1006100000010001000100000001000100010001D3
:1006200000010001000100010001000100010001C2
:1006300000000001000100010001000100010001B3
:1006400000010001000100010001000100010001A2
:100650000001000100000001000100000001000095
:100660000001000000010001000100010001000183
:100670000001000100010001000100010001000172
:100680000001000100010001000100010001000063
:100690000001000100010001000100010001000152
:1006A0000001000100010001000100010000000143
:1006B0000001000100010001000100010001000132
:1006C0000001000100010000000100010001000123
:1006D0000001000100010001000100010001000112
:1006E0000001000100010001000100000001000103
:1006F00000000001000000010000000100010001F5
:1007000000010001000100010001000100010001E1
:1007100000010001000100010001000100010001D1
:1007200000010001000000010001000100010001C2
:1007300000010001000100010001000100010001B1
:1007400000010000000100010001000100010001A2
:100750000001000100010001000100010000000192
:100760000001000100010001000100010001000181
:100770000001000100010001000100010001000171
:100780000000000100010000000100000001000065
:100790000001000100010001000100010001000151
:1007A0000001000100010001000100010001000141
:1007B0000001000100010001000100000001000132
:1007C0000001000100010001000100010001000121
:1007D0000001000100010001000000010001000112
:1007E0000001000100010001000100010001000101
:1007F00000010000000100010001000100010001F2
:1008000000010001000100010001000100010001E0
:1008100000010001000100000001000100000001D2
:1008200000000001000000010001000100010001C2
:1008300000010001000100010001000100010001B0
:1008400000010001000100010001000100010001A0
:100850000000000100010001000100010001000191
:100860000001000100010001000100010001000081
:100870000001000100010001000100010001000170
:100880000001000100010001000000010001000161
:100890000001000100010001000100010001000150
:1008A0000001000100010001000100010000000141
:1008B0000001000000010000000100000001000133
:1008C0000001000100010001000100010001000120
:1008D0000001000100010001000100010001000110
:1008E0000001000100010000000100010001000101
:1008F00000010001000100010001000100010001F0
:1009000000010001000000010001000100010001E0
:1009100000010001000100010001000100010000D0
:1009200000010001000100010001000100010001BF
:1009300000010001000100010001000100010001AF
:1009400000010000000100010000000100000001A2
:100950000000000100010001000100010001000190
:10096000000100010001000100010001000100017F
:100970000001000100010001000100010000000170
:10098000000100010001000100010001000100015F
:100990000001000100010001000100000001000150
:1009A000000100010001000100010001000100013F
:1009B0000001000100000001000100010001000130
:1009C000000100010001000100010001000100011F
:1009D0000001000100010001000000010001000011
:1009E0000001000000010000000100010001000101
:1009F00000010001000100010001000100010001EF
:100A000000010001000100010001000100010001DE
:100A100000010000000100010001000100010001CF
:100A200000010001000100010001000100010001BE
:100A300000000001000100010001000100010001AF
:100A4000000100010001000100010000000100019F
:100A5000000100010001000100010001000100018E
:100A6000000100010001000100010001000100007F
:100A70000001000100000001000000010000000171
:100A8000000100010001000100010001000100015E
:100A9000000100010001000100010001000100014E
:100AA000000100010001000100000001000100013F
:100AB000000100010001000100010001000100012E
:100AC000000100010001000000010001000100011F
:100AD000000100010001000100010001000100010E
:100AE00000000001000100010001000100010001FF
:100AF00000010001000100010001000100010001EE
:100B000000010001000000010001000000010000E0
:100B100000010000000100010001000100010000CF
:100B2000000000000000002A2B2800000000000048
:100B30000000000000000000000029000000002C60
:100B40001E3420212224342627252E362D373827FF
:100B50001E1F202122232425263333362E37381F0B
:100B60000405060708090A0B0C0D0E0F10111213CD
:100B70001415161718191A1B1C1D2F3130232D356B
:100B80000405060708090A0B0C0D0E0F10111213AD
:100B90001415161718191A1B1C1D2F3130354C004F
:100BA0000000000000000000000000000000000045
:100BB0000000000000000000000000000000000035
:100BC000010101010101000101010100000000001B
:100BD0000000000000000000000100010001010110
:100BE00001010101010101010101010101010101F5
:100BF00001010101010101010101000000010100E9
:100C000000000000000000000000000000000000E4
:100C100000000000000000000000010101010000D0
:100C2000047F3F1F643214643214783C1E1E140A81
:100C3000056801F000B40078005A000000000000D0
:100C4000010101010101010101020202020202028D
:100C50000202030303030303030304040404040460
:100C60000505050505060606060607070707080821
:100C700008080909090A0A0A0A0B0B0B0C0C0C0DCF
:100C80000D0D0E0E0F0F0F10101111111212131364
:100C90001414151516161717181819191A1A1B1CDB
:100CA0001C1D1D1E1F1F2020212222232425252636
:100CB000272728292A2B2B2C2D2E2F2F303132336A
:100CC000343536363738393A3B3C3D3E3F40414279
:100CD0004344464748494A4B4C4D4F505152535557
:100CE0005657585A5B5C5E5F606263646667696A08
:100CF0006C6D6E707173747678797B7C7E80818385
:100D00008486888A8B8D8F91929496989A9B9D9FCA
:100D1000A1A3A5A7A9ABADAFB1B3B5B7B9BBBDBFD3
:100D2000C1C4C6C8CACCCFD1D3D6D8DADCDFE1E49F
:100D3000E6E8EBEDF0F2F5F7FAFCFF040330000013
:100D4000000A0344005A003600300000000E03641D
:100D5000007A007400650063006800000004030965
:100D60000409023B00020100A0FA0904000001038B
:100D70000101000921110100012240000705810342
:100D800008000A0904010001030000000921110103
:100D90000001223B000705820320000A1201100116
:100DA00000000008EDFE6060010001020301050182
:100DB0000906A1018505050719E029E715002501A8
:100DC0009508750181020508190129059505750128
:100DD00091029501750391010507190029EF15008E
:100DE000250195F075018102C005010906A10105E3
:100DF0000719E029E715002501950875018102957D
:100E000001750881010508190129059505750191EC
:100E1000029501750391010507190029FF150026A8
:100E2000FF00950675088100C00011241FBECFEF9A
:100E3000DAE0DEBFCDBF04B603FE27C080918F028B
:100E400090919002A0919102B09192028730904BC4
:100E5000A740B04BD1F410928F02109290021092E2
:100E600091021092920214BE84B7877F84BF0FB69E
:100E7000F894A8958091600088618093600010923A
:100E800060000FBEE0E0F8E3099511E0A0E0B1E0FA
:100E9000E4EFFDE502C005900D92AE32B107D9F73F
:100EA00022E0AEE2B1E001C01D92AF38B207E1F737
:100EB0000E9476250C94F82E0C940000FC01613001
:100EC00061F028F0623079F0633099F018C08281C7
:100ED0008823A9F086EB91E008958281882379F038
:100EE0008DEA91E008958281882349F084EA91E0B7
:100EF00008958281882319F087E991E0089580E0C0
:100F000090E0089508950895FB018932910549F113
:100F100018F44F97E1F039C0813E910521F0823EEF
:100F2000910559F032C08281882321F091E090939D
:100F30002F01089510922F0128C08281882321F06B
:100F400091E090932E01089510922E011EC082818F
:100F50008823D9F090912E019923C1F084E991E082
:100F600010C08281882389F090912F01992319F074
:100F700082E991E006C090912E01992339F080E931
:100F800091E00E942B0880E0089581E0089581FFA0
:100F900002C0229A01C022982A98089581E00895FB
:100FA0000C948407CF93282F30E0F901E15EF44FD1
:100FB000C491F901E156F44F2491222359F081EEB6
:100FC0000E9432178C2F0E9432178C2F0E944918D2
:100FD00081EE04C08C2F0E9432178C2FCF910C947D
:100FE00049180F931F93CF93DF93EC01062FFE0157
:100FF0008491882359F19E012F5F3F4F813041F446
:10100000E901F9011491812F0E943217812F0DC03F
:10101000823031F4E901F90184910E9432170AC04B
:10102000833031F4E901F90184910E94491802C02A
:101030000E94D2072196802F8823C9F2EFE9FFE0B2
:101040003197F1F700C000008150F6CFDF91CF91CA
:101050001F910F91089560E00C94F1070C94E50D39
:10106000CF92DF92EF92FF92863030F4811105C06B
:10107000909180009F7D04C085E0909180009062F7
:1010800090938000282F30E0AFEFBFEF0E94892EB1
:1010900025E030E040E050E00E94612E2C3784E1F2
:1010A00038074105510530F4C90169E070E00E943C
:1010B000392E29C0DA01C9018A50974DAF4FBF4F71
:1010C0006627782F892F9A2F25EF38E241E050E0EC
:1010D0000E94612E69017A01CA01B9010E94292E7C
:1010E0009B01AC01C701B6010E94292EBB27A92F85
:1010F000982F872F009721E0A207B10511F0BC01BE
:1011000002C06FEF7FEF70938B0060938A00FF90B7
:10111000EF90DF90CF900895269A2E9882E28093E8
:10112000800089E1809381008FEF9FEF909387008B
:10113000809386000C948F230E946421811102C049
:101140000E94DB210E948C080C94E30D0C94C707CD
:101150000C94A60808950E94221B0E94AA082FEF53
:1011600084E39CE0215080409040E1F700C0000003
:101170000C945223FF920F931F93CF93DF938C0114
:10118000FC01C081D18180917D01811113C08281D8
:10119000882349F0CE010E945720F82E682FCE01F7
:1011A0000E94FC1F04C0CE010E942B20F82EBE011D
:1011B0008F2D04C0CE010E945720BE010E94390B22
:1011C000EC01B8010E94D007882309F44AC2CC3C44
:1011D000FCE5DF0709F4DFC0E8F5C43C9CE5D9076E
:1011E00009F4A3C0F8F4C531FCE5DF0778F4C23098
:1011F0008CE5D80708F04EC1C1159CE5D90709F464
:1012000065C0C130DC4509F469C01EC2C23CFCE5C2
:10121000DF0709F476C008F07CC0C631DC4509F46C
:10122000ECC112C2F8018281C83CFCE5DF0709F479
:101230009AC040F4C63CECE5DE0709F488C008F427
:1012400080C08BC0CA3C9CE5D90709F498C008F45B
:1012500090C09BC0C43DFCE5DF0709F4F6C0C0F4B4
:10126000F8018281C03DFCE5DF0709F4BDC040F410
:10127000CE3CECE5DE0709F49BC008F494C0A6C0A0
:10128000C23D9CE5D90709F4CDC008F4BDC0D8C063
:10129000C83DFCE5DF0709F495C150F4F8018281EF
:1012A000C63DFCE5DF0709F447C108F4DEC065C1AF
:1012B000CC3DECE5DE0709F4E4C0CD3DFCE5DF07FD
:1012C000C1F0CB3DDC4509F0BFC1D4C0F80182813B
:1012D000882309F4C6C10E94AB08C3C1F80182810A
:1012E000882309F4BEC180911502816080931502A4
:1012F000B8C1F8018281882309F4B3C10E94DB21BF
:10130000B0C1F8018281882309F4ABC10E94651243
:10131000A8C1F8018281882309F4A3C10E94282171
:10132000827261F00E940A129CC1F80182818823B6
:1013300009F497C10E9428218272A1F30E94FC1136
:1013400090C1882309F48DC10E94FF108AC18823AF
:1013500009F487C10E94231184C1882309F481C143
:101360000E9443117EC1882309F47BC10E9463114E
:1013700078C1882309F475C10E94831172C1882342
:1013800009F46FC10E94A3116CC1882309F469C1DB
:101390000E94BB0F66C1F8018281882309F461C1F4
:1013A0000E94D00F5EC1882309F45BC181E029C08F
:1013B000882309F456C10E94B20F823028F00E949F
:1013C000B20F853008F4BACF82E01BC0882309F43D
:1013D00048C10E94B20F863028F00E94B20F8830B8
:1013E00008F4ACCF86E00DC0882309F43AC10E940E
:1013F000B20F893028F00E94B20F8E3008F49ECFD1
:1014000089E00E940D122DC1882309F42AC10E948F
:10141000B20F8F3028F00E94B20F843108F48ECFC3
:101420008FE0EFCF882309F41CC10E94B20F8531F1
:1014300028F00E94B20F873108F480CF85E1E1CF18
:10144000882309F40EC188E1DCCFF801828188236A
:1014500009F407C10E94B20F893128F00E94B20F2F
:10146000823208F46BCF89E1CCCF882309F4F9C02C
:1014700083E2C7CFF8018281882309F4F2C080E0BB
:1014800006C0F8018281882309F4EBC082E00E9443
:101490001726E7C0F8018281882309F4DAC00E9488
:1014A0006421811102C00E94DB210E94772190E01B
:1014B0009093800280937F02FE01E350FC45E2316D
:1014C000F10530F4EA5AFF4F80917F020C94832E8D
:1014D00080917F02816027C0826025C0846023C024
:1014E000806121C080621FC080641DC080681BC0F5
:1014F0008460886018C08E7F16C08D7F14C08B7F7B
:1015000012C08F7E10C08F7D0EC08F7B0CC08F7776
:101510000AC08B7F877F07C087FB222720F991E0D5
:10152000922790FB87F980937F0280917F020E942F
:101530007B210E94221B95C0882351F01092350117
:101540000E94F622909332018093310182E020C004
:101550008091350181110FC080913101909132014C
:101560000E940223883C910530F486E20E943217E3
:1015700086E20E94491882E022C0882361F010921E
:1015800036010E94F622909334018093330180E269
:101590000E94A81866C08091360181110FC0809109
:1015A0003301909134010E940223883C910530F46C
:1015B00087E20E94321787E20E94491880E20E9467
:1015C000AF184FC0F80182818111D9CF80913601C7
:1015D0008111F4CF80913301909134010E94022354
:1015E000883C910558F780E20E94AF1888E20E947B
:1015F000321788E20E94491834C00E942821282FFF
:10160000F801828140910D0150910E01882379F0FB
:101610002A7A91E009F490E090933001911102C090
:1016200069E201C065E3CA010E9442220AC08091BA
:101630003001811102C069E201C065E3CA010E9464
:101640004D220E94F5200DC081E0809335018093EA
:101650003601C801DF91CF911F910F91FF900C943B
:10166000CE0780E0DF91CF911F910F91FF900895F9
:1016700008959FE0799FF00111249BE4899FE00D7C
:10168000F11D1124E60FF11DEE0FFF1FE154FE4F77
:10169000859194910895880F991FFC01E15EF34FA5
:1016A000859194910895CF93DF930E94390B0E9406
:1016B000430DEC01811521E5920708F042C0811528
:1016C00060E5960708F02CC1883E910500F5803E44
:1016D000910508F0D4C1883A910570F4853A9105D6
:1016E00008F0A2C08130910509F4C9C108F47AC19B
:1016F000049708F0C4C176C18F3B910508F49FC0E0
:10170000803C910508F46EC1805C9109F9C0C11557
:1017100080E3D80780F4C11590E2D90708F0EEC045
:10172000C03FD10508F45EC1CF3FD10511F008F0EC
:10173000A6C1D065A4C1C11520E4D20708F0EDC050
:10174000E2C0811569E5960760F5C11588E5D807FF
:1017500008F032C1C11594E5D90778F4C11523E525
:10176000D20708F00EC1C11562E5D60708F0F3C034
:10177000DC2FCC27C16FD06A82C1C11585E5D8079F
:1017800008F415C1C11596E5D90708F02BC18C2FB7
:101790000E94C00D8F71C82FD0E0DC2FCC27D06203
:1017A0006EC18D3B2CE5920709F413C1D0F4CB3BFD
:1017B0008CE5D80709F407C108F008C1C1152AE56E
:1017C000D20708F00FC12C2F2F70206E30E0306A46
:1017D00084E0D695C7958A95E1F7CF70C9019C2B17
:1017E000F0C0803C9C4509F4FAC0C13C8CE5D807A8
:1017F00060F4CE3B9CE5D90709F4EEC0CF3BDC4555
:1018000009F0F0C0C0E0D2ED3AC1CE01905681158A
:10181000904208F0E7C08D2F8F710E94C00DDD2728
:10182000D0628F71D82B2BC1853A910509F4DDC0A8
:10183000863A910509F0DCC0C2E8D0E420C1883ABC
:10184000910509F4D8C0893A910509F4D7C08A3ABC
:10185000910509F4D6C08B3A910509F4D5C08C3AAC
:10186000910509F4D4C08B3B910509F4D3C08C3B9E
:10187000910509F4D2C08D3A910509F4D1C0803B9D
:10188000910509F4D0C08E3A910509F4CFC08F3A82
:10189000910509F4CEC0813B910509F4CDC0823B8E
:1018A000910509F4CCC0833B910509F4CBC0843B7E
:1018B000910509F4CAC0853B910509F4C9C0863B6E
:1018C000910509F4C8C0873B910509F4C7C0883B5E
:1018D000910509F4C6C0893B910509F4C5C08D3B4B
:1018E000910509F4C4C08E3B910509F4C3C08A3B3D
:1018F000910509F4C2C0C0E0D4E4C1C0CE019F701C
:101900000E944B0B5EC0CE019927D3FF03C0EC01B0
:10191000D86CB5C0EC01D06CB2C0DF70D06AAFC07B
:10192000837021E030E002C0220F331F8A95E2F776
:101930003C68CE0154E0969587955A95E1F78370FF
:10194000382BCF70C695C69580E2C89FE001112460
:10195000C22BD32B94C04C2F4695469590E2499FBD
:10196000A0011124C370DD2721E030E0C90102C0CD
:10197000880F991FCA95E2F7EC01C42BD52BDC68C0
:101980007EC04C2F4695469580E2489FA0011124C9
:10199000C370DD2721E030E0C90102C0880F991F24
:1019A000CA95E2F7EC01C42BD52BDA6868C0DC2FAE
:1019B000CC27C46FD06A63C0DC2FCC27C06FD06A3D
:1019C0005EC0EC015CC0C0E0D4ED59C0C0E0D5ED14
:1019D00056C0C0E0D1ED53C0C0E0D0ED50C0C0E073
:1019E000D3ED4DC0C0E0D0E04AC0C1E8D0E447C06C
:1019F000C3E8D0E444C0C2EED4E441C0C9EED4E4AC
:101A00003EC0CAEED4E43BC0C5EBD4E438C0C6EB5C
:101A1000D4E435C0C3EBD4E432C0C4EBD4E42FC06B
:101A2000C7EBD4E42CC0CCECD4E429C0CDECD4E496
:101A300026C0C3E8D5E423C0CAE8D5E420C0C2E983
:101A4000D5E41DC0C4E9D5E41AC0C1E2D6E417C08C
:101A5000C3E2D6E414C0C4E2D6E411C0C5E2D6E4C1
:101A60000EC0C6E2D6E40BC0C7E2D6E408C0CFE69B
:101A7000D4E405C0C0E7D4E402C0CAE2D6E4CE0193
:101A8000DF91CF9108958238910549F1B0F4813307
:101A9000910509F458C048F48932910509F44EC003
:101AA0008A32910509F454C008958533910509F4EB
:101AB00040C08933910599F00895833E910529F13D
:101AC00038F4803E910591F0823E9105A1F0089591
:101AD000863E9105F9F0873E910531F108952091F8
:101AE0007F0220FD3AC021FD38C0089580917F0219
:101AF00080FD35C032C080917F0282FF32C080916C
:101B00007F0284FD30C083EE39C080917F0282FD68
:101B100028C0F5CF80917F0283FF27C080917F028C
:101B200084FD21C087EE2AC080917F0283FD1DC005
:101B3000F5CF80917F0285FD1AC01BC080917F0286
:101B400085FD17C014C080917F0286FD14C015C0AA
:101B500080917F0286FD11C00EC080EE0FC089E328
:101B60000DC082EE0BC080E009C086EE07C089E29E
:101B700005C085E303C08AE201C081E390E00895D7
:101B800090917F0292FF0DC0282F2871283019F400
:101B9000877F846006C0282F2471243011F48B7F46
:101BA000886093FF0DC0282F2871283119F4877E93
:101BB000846106C0282F2471243111F48B7E886142
:101BC00094FD877E08950C9482070C948307E9E2C4
:101BD000F1E041E050E025E02E0F9191A92FA29570
:101BE000AF70B0E091963C9191979F70BA0102C09E
:101BF000660F771F9A95E2F7CB0180958323919624
:101C00008C932E13EACFAAE1B1E041E050E02FE03F
:101C10002A0F8D91E82FE295EF70F0E031A18F70DF
:101C2000BA0102C0660F771F8A95E2F7CB01962FA3
:101C30009095932391A392A1892B82A32A13E9CF94
:101C4000E1E4F1E0A7E3B1E0119211921D921D923F
:101C500071E0EB34F707C1F785E00E94D30E0C94D6
:101C60009C084F925F927F928F929F92AF92BF9209
:101C7000CF92DF92EF92FF920F931F93CF93DF9358
:101C800029E2422E21E0522EA1E4B1E020E001E061
:101C900010E05D018D909C90119711961C921E9200
:101CA000E20189912E01E82FE295EF70F0E031A179
:101CB0008F70A80102C0440F551F8A95E2F7CA0130
:101CC000342B31A342A1382F3095432342A350EA4D
:101CD0005A95F1F79AE1C92E91E0D92E40E050E0F3
:101CE000E60179906E01672D62956F7070E0EB01EF
:101CF000E8A06D917C911197F12CD72DDF7002C077
:101D0000F594E794DA95E2F7E0FC08C07801042E38
:101D100002C0EE0CFF1C0A94E2F702C0E12CF12C89
:101D20006E297F2911967C936E934F5F5F4F4F30E2
:101D30005105B1F691A1392331A392A1892B82A338
:101D4000129681E0F501408151818416950609F4CF
:101D500080E0282BF1E0AB34BF0709F09ACF45E0D3
:101D600067E371E081E491E00E94D40E0E942E08A6
:101D700081E0DF91CF911F910F91FF90EF90DF9065
:101D8000CF90BF90AF909F908F907F905F904F903B
:101D90000895E82FF0E0EE0FFF1FE95CFE4F808111
:101DA0009181089508950895FF920F931F93CF9303
:101DB000DF93F82E092F162FD72FC42F222349F097
:101DC00081E080934D010E94F62290934C01809314
:101DD0004B0180914D018823B9F080914B01909186
:101DE0004C010E940223069778F0EF2DF02FA12FCF
:101DF000BD2F80E08C1731F0219131912D933D93CF
:101E00008F5FF8CF10924D01DF91CF911F910F910D
:101E1000FF900895EF92FF920F931F93CF93DF935C
:101E2000E901493C08F048EC662309F44BC0242F33
:101E300030E0EFEFF0E0E61BF109B901E69F900119
:101E4000E79F300DF69F300D1124232F8B01031BCC
:101E500011095CE3E52EF12CB7010E94392EFB013C
:101E6000BC01069FC001079F900D169F900D112485
:101E7000B7010E94392EE230F105B1F040F43097FD
:101E800079F0319711F5832F242F461B21C0E430C0
:101E9000F105A1F068F03597C1F4842F861B18C0B6
:101EA000832F262F230F14C0862F830FE42F03C008
:101EB000E42FE61B842F432F2E2F0AC0842F462F9A
:101EC000430F06C0842F242F03C080E020E040E0B1
:101ED000E42FF0E0E55CF34F4491E22FF0E0E55CA5
:101EE000F34F9491E82FF0E0E55CF34FE4914983E0
:101EF0009883EA83DF91CF911F910F91FF90EF902C
:101F0000089588E090E00C94B82ECF92DF92EF9283
:101F1000FF926B017C010E94810F6C157D058E057F
:101F20009F0551F0B701A60188E090E0FF90EF9087
:101F3000DF90CF900C94D62EFF90EF90DF90CF9053
:101F40000895EAE3F2E083E0808310923B028FEF92
:101F5000828388EC83831482608171818281938182
:101F60000C94850F80913A0280FF03C086958F7391
:101F7000089580E0089580913E0290E001968430BB
:101F8000910514F083E090E080933E0260913A0264
:101F900070913B0280913C0290913D020C94850F20
:101FA00080913E0290E0019797FF02C080E090E0B0
:101FB0008430910514F083E090E080933E026091BC
:101FC0003A0270913B0280913C0290913D020C9448
:101FD000850F80913A0280FF06C064E170E08FE3D4
:101FE00092E00C94D01580E090E0FC01E15CFD4FA4
:101FF00011821082128203968C339105B1F7EDCFD6
:1020000090913A0290FF0FC020E030E0F901E15CCE
:10201000FD4F8183608342832D5F3F4F2C33310519
:10202000A9F70C94E90F0895CF93DF9300D01F9286
:10203000CDB7DEB720913A0220FF0AC09E012F5F84
:102040003F4F0E940A0F4B8169818A810E940010D4
:102050000F900F900F90DF91CF9108955F926F9244
:102060007F928F929F92AF92BF92CF92DF92EF9228
:10207000FF920F931F93CF93DF9300D01F92CDB7A2
:10208000DEB78C01E62EF42E522E80913A0280FFAC
:1020900089C0982F9E77923061F49E012F5F3F4F49
:1020A000C8010E940A0F4B8169818A810E94001039
:1020B00059C0E82FE695EF739EE39E0F9F7394300F
:1020C00018F4F0903D024EC09AE39E0F9F73993032
:1020D00068F4881F8827881F90913B02292F220FC0
:1020E000022F082B97FB112710F93CC087E28E0FB7
:1020F0008F738A30B8F5F0E07997E0FD02C021E0F7
:1021000001C02FEFEE7FEF5CF34F8591949164E176
:1021100070E00E94392E26034001279F900C112465
:10212000580188E9A81A8EEFB80A8FE3C82E82E01A
:10213000D82E98E6692E77247394C501B3010E94C6
:10214000392E96014F2D6E2D0E940A0FA80CB91C36
:1021500083E0C80ED11C8BE7C81682E0D80669F769
:102160000E94E90F80913A0200FB87F980933A02BE
:10217000902F969580913B028078892B10FB87F9F0
:1021800080933B02E0923C02F0923D02552051F0D8
:1021900060913A0270913B0280913C0290913D0225
:1021A0000E94850F0F900F900F90DF91CF911F919C
:1021B0000F91FF90EF90DF90CF90BF90AF909F90E6
:1021C0008F907F906F905F900895282FEAE3F2E060
:1021D0009081991F9927991F30913B02832F880F77
:1021E000482F492B37FB552750F9CA01089668E656
:1021F00071E00E944D2E438162810C942E1081E08B
:102200000C94E510282F90913A02991F9927991F55
:1022100030913B02832F880F482F492B37FB5527DE
:1022200050F9CA01483051051CF4805A9E4F01C034
:10223000089768E671E00E944D2E40913D02609142
:102240003C020C942E1081E00C94021160913C022F
:10225000262F30E0283F310514F4685F01C06FEF8E
:1022600030913A02331F3327331F90913B02592F8D
:10227000550F97FB992790F9282F40913D02852F04
:10228000832B0C942E1081E00C94261160913C025B
:10229000262F30E02830310514F0685001C060E08E
:1022A00030913A02331F3327331F90913B02592F4D
:1022B000550F97FB992790F9282F40913D02852FC4
:1022C000832B0C942E1081E00C94461140913D021A
:1022D000242F30E0213C310514F4485F01C048EC64
:1022E00030913A02331F3327331F90913B02592F0D
:1022F000550F97FB992790F9282F60913C02852F65
:10230000832B0C942E1081E00C94661140913D02B9
:10231000242F30E02830310514F0485001C040E04F
:1023200030913A02331F3327331F90913B02592FCC
:10233000550F97FB992790F9282F60913C02852F24
:10234000832B0C942E1081E00C94861120E00C94C9
:102350002E10CF9390913A0290FF40C09178811156
:1023600002C0926007C0853210F0986403C08F737A
:10237000880F982B90933A02662351F060913A02AD
:1023800070913B0280913C0290913D020E94850F2A
:10239000C0913A026C2F66956F7370E04BE050E08D
:1023A00082E091E00E94A32E892B19F010926B011C
:1023B00003C081E080936B01CC1FCC27CC1F909190
:1023C0003B02892F880F97FB992790F940913D0296
:1023D00060913C028C2BCF910C94A611CF91089563
:1023E000682F90913A0296959F7381E0890F85320C
:1023F00008F081E00C94A91181E00C94F011682F91
:1024000090913A0296959F738FEF890F09F484E2B9
:102410000C94A91181E00C94FF1161E00C94A911B6
:10242000EAE3F2E080818160808386958F730C946B
:102430000D1260E00C94A9118091150281608093C7
:1024400015020E946421811104C00E94DB210E94B8
:10245000A10F0E94810F60933A0270933B02809318
:102460003C0290933D026E7761F40E94A10F0E949E
:10247000810F60933A0270933B0280933C029093E9
:102480003D0281E080936B0180913A0280FF04C09D
:1024900086958F730C9419120895EAE3F2E0808117
:1024A0008E7F808360817181828193810E94850FFC
:1024B00010926B012FEF80E792E021508040904016
:1024C000E1F700C000000C94E90F80913A0280FD12
:1024D0000C944D120C941012CF93C82F8091690167
:1024E00090916A010E940223EC2FF0E0E35DF34F2C
:1024F000E491F0E08E179F0708F443C00E94F62293
:1025000090936A01809369016091680170E080E0B6
:1025100090E00E942A2C20E030E04FE753E40E9434
:102520004D2B2BED3FE049E450E40E94532D0E94D7
:10253000C02D0E94C72B2BE43AE34EE25FE30E94DA
:10254000E02A20EF3BEF48ED52E40E94532D0E9419
:10255000F92B462F80913A02881F8827881F909177
:102560003B02292F220F97FB992790F960913C029B
:10257000822B0E9414108091680190E00196809354
:102580006801CF910895CF93C82F809166019091F3
:1025900067010E940223EC2FF0E0E65DF34FE49127
:1025A000F0E08E179F07E8F00E94F62290936701F3
:1025B0008093660140913D0260913C0280916401EC
:1025C000909165010E9414108091640190916501C1
:1025D000019668E671E00E94392E90936501809320
:1025E0006401CF910895CF92DF92FF920F931F93D2
:1025F000CF93DF93F82E80916201909163010E9446
:102600000223EF2DE695F0E0E95DF34FE491F0E071
:102610008E179F07E8F10E94F62290936301809342
:1026200062010FE312E0C0E0D0E088E6C82EDD24AE
:10263000D39480916001909161018C0F9D1FB60130
:102640000E94392E980140913D0260913C020E9407
:102650000A0F62960D5F1F4FC83681E0D80749F711
:102660000E94E90F2091600130916101F0FE0AC0E3
:10267000C9010196BE010E94392E90936101809399
:10268000600106C02150310930936101209360013F
:10269000DF91CF911F910F91FF90DF90CF90089520
:1026A000AF92BF92CF92DF92EF92FF920F931F9360
:1026B000CF93DF93C82F80FF02C01FEF01C011E04E
:1026C00080915E0190915F010E940223C695EC2FDC
:1026D000F0E0EC5DF34FE491F0E08E179F0708F413
:1026E00066C00E94F62290935F0180935E012FE303
:1026F000C22E22E0D22E31E4E32E32E0F32EC0E0EF
:10270000D0E0F70131971082F6011082F7011082B4
:1027100094E0A92EB12C00E080915D01800F87FD2F
:102720008C5E082E000C990BC817D907E9F480912C
:102730003D028A9DA0018B9D500D11245595479512
:102740005595479580913A02881F8827881F909158
:102750003B02592F550F97FB992790F996016091ED
:102760003C02852B0E940A0F010FF1E0AF1AB1085D
:1027700099F6219683E0C80ED11CE3E0EE0EF11C21
:10278000C431D10509F0BDCF0E94E90F80915D01F0
:10279000113031F4811102C083E107C0815005C0BE
:1027A00090E00196BE010E944D2E80935D01DF9165
:1027B000CF911F910F91FF90EF90DF90CF90BF903E
:1027C000AF9008950F931F93CF93DF93C82F8091FD
:1027D0005B0190915C010E940223EC2FF0E0EF5D21
:1027E000F34FE491F0E08E179F0708F466C00E9453
:1027F000F62290935C0180935B0180E090E0FC0105
:10280000E15CFD4F11821082128203968C33910598
:10281000B1F7C0E0D0E004E110E0CE01B8010E94C1
:102820004D2E40915A01042E000C550BFC01EE0F69
:10283000FF1FC417D5070CF140910101042E000CB5
:10284000550B4C175D07CCF08E0F9F1F9C01215C30
:102850003D4F80913A02881F8827881F90913B0244
:10286000592F550F97FB992790F940913D026091A0
:102870003C02852B0E940A0F07C0E80FF91FE15C9C
:10288000FD4F1182108212822196C431D10529F6A2
:102890000E94E90F8091000190915A01980F909346
:1028A0005A0120910101280F20930101121614F4FE
:1028B00093311CF0819580930001DF91CF911F919E
:1028C0000F910895EF92FF920F931F93CF93DF9391
:1028D00080915801909159010E940223883E9340B3
:1028E000D0F10E94F6229093590180935801C09133
:1028F0005601D09157012196C170DD27D093570121
:10290000C09356018FE3E82E82E0F82E10E008E72E
:10291000812F8695FE01E80FF11DCF018170992767
:10292000970140913D0260913C02FC010E9FC00165
:102930000F9F900D11240E940A0F1F5FF3E0EF0E0E
:10294000F11C143129F7DF91CF911F910F91FF9066
:10295000EF900C94E90FDF91CF911F910F91FF90B1
:10296000EF900895CF93DF9300D01F92CDB7DEB7DD
:1029700080915401909155010E940223EFE1FCE007
:102980002591349182179307C0F1809153018111F1
:102990000CC09E012F5F3F4F48EC6FEF80E090E04E
:1029A0000E940A0F8A81809353010E94F62290931D
:1029B00055018093540180915201813051F028F0EB
:1029C000823061F4409153010AC08091530140E08C
:1029D00007C06091530140E080E003C040E080E028
:1029E00060E00E9400108091520190E0019663E047
:1029F00070E00E944D2E809352010F900F900F9027
:102A0000DF91CF9108950F931F93CF93DF93809120
:102A10005001909151010E940223843F914008F49B
:102A200048C00E94F6229093510180935001CFE359
:102A3000D2E000E010E020914E0130914F018091F2
:102A40003A0290913B020A3011051CF4232B79F0D5
:102A500002C0232B61F4881F8827881F592F550F28
:102A600097FB992790F99E0140913D020AC0881F6B
:102A70008827881F592F550F97FB992790F99E019A
:102A800040E060913C02852B0E940A0F0F5F1F4FB0
:102A900023960431110579F60E94E90F80914E01C9
:102AA00090914F0101968170992790934F018093E7
:102AB0004E01DF91CF911F910F91089580916B018D
:102AC0008823D9F190913A02892F86958F732EE34E
:102AD000280F2F73243018F482500C946C122AE3C0
:102AE000280F2F73233018F486500C94C31227E359
:102AF000280F2F73263018F489500C94F31221E319
:102B0000280F2F73263018F48F500C9450132BE29B
:102B1000280F2F73233018F485510C94E213892F5A
:102B20008E77803311F40C946214863411F40C9473
:102B3000B214883411F40C94031508952EB1342F77
:102B4000309523233EB1432B3FB7F894FC01680F27
:102B5000791FE617F70789F0819198E04EB90000D8
:102B600000C087FF2EB9880F000000C000C000C061
:102B70002EB900C09A9591F7ECCF3FBF08952DB1C3
:102B8000242B2DB99B01220F331F620F731F0E944C
:102B90009E1587EC90E00197F1F700C000000895C2
:102BA00044E00C94BF1590937101809370010895D7
:102BB000E0917001F0917101309721F00190F08166
:102BC000E02D099480E00895E0917001F091710189
:102BD000309799F020911901222359F020917F021A
:102BE00027FF07C0DC012C9111962C93119725E04B
:102BF0002C930280F381E02D0994089520916E01B9
:102C000030916F018217930771F090936F01809359
:102C10006E01E0917001F0917101309721F0068012
:102C2000F781E02D0994089520916C0130916D0198
:102C30008217930771F090936D0180936C01E0917E
:102C40007001F0917101309721F00084F185E02D41
:102C50000994089585B7806885BF85B7806885BF6A
:102C6000089508950E942A160C94311681E0089563
:102C70000E94ED220E94E70D0E9476230E948F237E
:102C80000C941C124F925F927F928F929F92AF9200
:102C9000BF92CF92DF92EF92FF920F931F93CF9349
:102CA000DF93CDB7DEB72A970FB6F894DEBF0FBE1D
:102CB000CDBF0E94310E0E943616811111C08FEFD8
:102CC00089838A831B820E94F6228160782F9D83EC
:102CD0008C8349815A816B818D810E94FE1657C079
:102CE00093E7C92E91E0D92E00E010E0AA24A39426
:102CF000B12C702E802F0E94C90E4C01F60141901C
:102D000051906F01482659264114510431F40F5F48
:102D10001F4F0530110569F7D2CF8091150281FD53
:102D20000E94D20E20E030E07501022E02C0EE0CAF
:102D3000FF1C0A94E2F7C70184219521892B09F130
:102D40002E837F828E209F2091E0892809F490E0D5
:102D500098870E94F6228160782F9A8789874E8112
:102D60005F8168858A850E94FE16000F111FF80199
:102D7000ED58FE4F80819181E826F926F182E082AC
:102D800006C02F5F3F4F2F30310571F6C0CF109135
:102D900072010E94D8151817D9F00E94D815809397
:102DA00072012A960FB6F894DEBF0FBECDBFDF9139
:102DB000CF911F910F91FF90EF90DF90CF90BF9038
:102DC000AF909F908F907F905F904F900C94A80849
:102DD0002A960FB6F894DEBF0FBECDBFDF91CF911C
:102DE0001F910F91FF90EF90DF90CF90BF90AF9029
:102DF0009F908F907F905F904F900895CF93DF9337
:102E0000CDB7DEB72B970FB6F894DEBF0FBECDBFA0
:102E10004F83588769877A878B87DE01119686E012
:102E2000FD0111928A95E9F785E0FE013796019040
:102E30000D928A95E1F749815A816B817C818D8160
:102E40009E810E94CC1D2B960FB6F894DEBF0FBE5C
:102E5000CDBFDF91CF910895FC01808191810E94C7
:102E600096200895882309F413C1682F8238C1F48D
:102E70000E94D81581FD0CC169E380910D019091EC
:102E80000E010E9442220E94F5202FEF81EE94E075
:102E9000215080409040E1F700C0000069E319C074
:102EA0008338F9F40E94D81580FDF2C063E5809163
:102EB0000D0190910E010E9442220E94F5202FEFF9
:102EC00081EE94E0215080409040E1F700C0000086
:102ED00063E580910D0190910E010E944D220C94AA
:102EE000F5208438C1F40E94D81582FDD1C067E472
:102EF00080910D0190910E010E9442220E94F520C6
:102F00002FEF81EE94E0215080409040E1F700C027
:102F1000000067E4DECF8CEF860F813A38F48091B1
:102F20000D0190910E010E944222D9CF80E2860FBE
:102F3000883048F4677081E001C0880F6A95EAF72D
:102F40000E942B21CCCF8BE5860F833070F4653A3D
:102F500029F0663A31F083E890E005C081E890E01E
:102F600002C082E890E00C94FE1588E5860F873158
:102F700008F08EC0683A09F445C0693A09F445C0C2
:102F80006A3A09F445C06B3A09F445C06C3A09F451
:102F900045C06B3B09F445C06C3B09F445C06D3A34
:102FA00009F445C0603B09F445C06E3A09F445C0D8
:102FB0006F3A09F445C0613B09F445C0623B09F42E
:102FC00045C0633B09F445C0643B09F445C0653B1B
:102FD00009F445C0663B09F445C0673B09F445C0A8
:102FE000683B09F445C0693B09F445C06D3B09F4F1
:102FF00045C06E3B09F445C06A3B09F445C080E01A
:1030000090E044C082EE90E041C089EE90E03EC086
:103010008AEE90E03BC085EB90E038C086EB90E014
:1030200035C083EB90E032C084EB90E02FC087EB9B
:1030300090E02CC08CEC90E029C08DEC90E026C094
:1030400083E891E023C08AE891E020C082E991E022
:103050001DC084E991E01AC081E292E017C083E2CA
:1030600092E014C084E292E011C085E292E00EC0CA
:1030700086E292E00BC087E292E008C08FE690E023
:1030800005C080E790E002C08AE292E00C9414163A
:103090000895882309F45BC0682F823879F40E9470
:1030A000D81581FF54C069E380910D0190910E0104
:1030B0000E9442220E94F52069E310C08338B1F4D7
:1030C0000E94D81580FF43C063E580910D01909167
:1030D0000E010E9442220E94F52063E580910D01BD
:1030E00090910E010E944D220C94F520843879F4C1
:1030F0000E94D81582FF2BC067E480910D0190914A
:103100000E010E9442220E94F52067E4E7CF8CEF77
:10311000860F813A18F380E2860F883048F4677092
:1031200081E001C0880F6A95EAF70E943121DCCF67
:103130008BE5860F833020F480E090E00C94FE1540
:10314000685A673120F480E090E00C9414160895DA
:10315000882321F00E942B210C94F52008958823C8
:1031600021F00E9431210C94F52008954F925F9236
:103170006F927F92BF92CF92DF92EF92FF920F9366
:103180001F93CF93DF937C01D62FC72FFC010581BE
:1031900002950F70128111110E9448210E94EE20A9
:1031A000882379F0112369F080E28D0F883048F090
:1031B00082E00E94D7200E94EE2091E0B82EB9262E
:1031C00001C0B12CCC2EC2948FE0C822D12CF601C4
:1031D000E859FF4F0C94832E8C2F807FCF7088236B
:1031E00011F0C295C07F112399F0CC2309F46EC170
:1031F00080E28D0F883010F0D11104C08C2F0E9416
:103200002B2103C08C2F0E943B210E94F5205EC120
:103210008D2F0E944918CC2309F4A1C180E28D0FA3
:10322000883010F0D11104C08C2F0E94312103C0CE
:103230008C2F0E9441210E94F52091C18C2F807F0C
:10324000CF70803211F0C295C07FDD2319F0D130EC
:10325000C9F022C0112371F0002341F0013031F494
:103260000E9461218C2B0E945B2179C10E94612107
:103270008C2BE4C0002319F0013009F470C10E94C6
:103280005E2118C0112321F0063008F068C10EC07D
:10329000053008F064C10EC0112351F0002331F055
:1032A000F701858180FF12C18F7085838C2FC6C086
:1032B00001111DC18C2FC8C08C2F837009F050C024
:1032C000111159C18D2F829586958770880F880FAF
:1032D0009D2F9F70492E512C612C712C082E04C0FB
:1032E000440C551C661C771C0A94D2F7D4FF14C0FA
:1032F0000FE010E020E030E0B901A80104C0440F65
:10330000551F661F771F8A95D2F7CB01BA016095CA
:1033100070958095909503C060E070E0CB01C695F4
:10332000C695C370D0E0C230D10561F0C330D1057D
:1033300081F06429752986299729219771F00E94C7
:10334000111F19C164297529862997290E94231FF5
:1033500012C10E94111FC301B2010E94FF1E0BC1C6
:10336000112319F08C2F817001C08695882309F4F0
:1033700002C18D2F829586958770880F880F9D2FAB
:103380009F70492E512C612C712C082E04C0440CC6
:10339000551C661C771C0A94D2F7D4FF14C00FE0AA
:1033A00010E020E030E0B901A80104C0440F551F2F
:1033B000661F771F8A95D2F7CB01BA016095709589
:1033C0008095909503C060E070E0CB01C695C695EE
:1033D000C3704C2F50E04230510569F04330510525
:1033E00089F064297529862997294130510571F0A2
:1033F0000E94D71FC0C064297529862997290E9479
:10340000E91FB9C00E94D71FC301B2010E94C51FA6
:10341000B2C08D2F90E0FC01E05EF109E531F105CD
:1034200008F050C0E858FF4F0C94832EDF708C2FAB
:103430008F71112331F00E945E1F8D2F0E94A818FA
:103440008EC00E947F1F8D2F0E94AF1888C011234D
:1034500041F0053008F083C08C2F8F710E94A41FAB
:103460007EC0063008F07BC0F7CF112339F08C2FD7
:103470008F710E945E1F73C01123C9F38C2F8F714F
:103480000E947F1F6CC0112329F08C2F8F710E9426
:10349000491F65C00E94441F62C0112349F0CF71CB
:1034A0008C2F0E945E1F63E08C2F0E94CE2057C09D
:1034B00081E00E94D720023008F451C082E00E94CF
:1034C000D7204DC0112331F0002389F28D2F0E94A7
:1034D000321745C0002391F2D93349F45FEF67EE0C
:1034E00073E0515060407040E1F700C000008D2F44
:1034F0000E94491834C04C2F4F706D2FC7010E9495
:103500005E070E94701E3BC0111139C0CF70D0E021
:10351000C230D10599F03CF4209769F02197F9F475
:103520000E94C9232CC0C430D10571F054F02597F6
:10353000B1F480E00AC00E94AC2321C00E9408249C
:103540001EC00E940F241BC085E00E94322417C0B9
:103550004C2F4F706D2FC7010E94380B10C088E0B0
:10356000C816D10441F05CF0EAE0CE1AD108F2E0CE
:10357000CF16D10420F40E94D8150E94A808BB20C1
:10358000F1F00E94CA2080FD1AC0F70112820E9449
:10359000C4200E945E1FC7010E94ED1A0E94C42031
:1035A000DF91CF911F910F91FF90EF90DF90CF901F
:1035B000BF907F906F905F904F900C947F1FDF9132
:1035C000CF911F910F91FF90EF90DF90CF90BF9020
:1035D0007F906F905F904F9008950F931F93CF93BC
:1035E000DF93EC01888199812B813C81232BB9F0F9
:1035F0009F3F11F48F3F99F0CE010E94BA088823B3
:1036000071F0688179818A810E94A1208C010E94D9
:10361000FB1F0E94FC1EB801CE010E94B618DF916C
:10362000CF911F910F9108950E9448210E94582127
:103630000C94F52080910D0190910E010E9458226A
:103640000C94141B0E9438210C941A1BE92FE2954C
:10365000EF70F0E03297EE30F105B0F4E357FF4F32
:103660000C94832E803F91F018F4803E68F40EC0D5
:10367000843F51F40BC0803E48F0813F29F406C0DE
:1036800093FB882780F9089580E0089581E00895EC
:103690000E9496200E94261B0895CF93DF9300D0AE
:1036A00000D01F92CDB7DEB70F900F900F900F9004
:1036B0000F90DF91CF910895CF93DF9300D000D08A
:1036C00000D0CDB7DEB726960FB6F894DEBF0FBE9A
:1036D000CDBFDF91CF9108951F93CF93DF93C0911A
:1036E0007E0116E080917F01C81799F0D0E01C9F01
:1036F000F0011D9FF00D1124E058FE4F40815181D3
:1037000062817381848195810E945C1B2196C770C0
:10371000E9CFDF91CF911F9108954091B001509171
:10372000B1016091B2017091B3018091B4019091A7
:10373000B5010C945C1B8091B50182958F7009F0E6
:1037400054C08091B201882309F44FC080917E015A
:10375000A0917F016091B0017091B1014091B301DE
:103760005091B401B6E08A1709F43FC090E04115CA
:103770005105C1F17F3F11F46F3FA1F1B89FF001F6
:10378000B99FF00D1124E058FE4F218172132AC019
:103790002081621327C02281211124C0238134811A
:1037A0002417350710F421503109241B350B283C10
:1037B0003105C0F42091B5012F7020612093B5012F
:1037C00026E0289FF001299FF00D1124EB57FE4FB2
:1037D00080818F708061808380EB91E00E94ED1A80
:1037E0000C946C1B01968770BECF0895CF92DF9228
:1037F000EF92FF920F931F93CF93DF93CDB7DEB776
:1038000062970FB6F894DEBF0FBECDBF8C0185E086
:10381000F801DE011D9601900D928A95E1F7D8011D
:103820004C9111965C91119712966C911297139688
:10383000CD90DC9014973091B0017091B1018091DE
:10384000B3019091B401009709F46BC17F3F19F463
:103850003F3F09F466C1E090B201EE2009F4C0C018
:103860002091B501C816D90628F0F601E81BF90B1E
:10387000CF0104C0809590958C0D9D1DFF24F3947D
:10388000883C910578F0F12C207F09F0C6C07C2D92
:10389000D98AC88A89890E944D1B80EB91E00E94D9
:1038A000ED1AB1C0822F807F09F046C0751314C095
:1038B000341312C0611110C02F7020612093B50124
:1038C0000E948D1B80EB91E00E94ED1A8091B50162
:1038D000D80115968C932EC0CD2819F15F3F11F4B5
:1038E0004F3FF9F0F62E61111CC080917E012091AE
:1038F0007F0136E0821709F45AC090E0389FF0014A
:10390000399FF00D1124E058FE4F7181571306C006
:103910007081471303C07281711103C001968770D3
:10392000E9CFF62E662309F427C18091B5018160A5
:103930008093B501F12C20C1751308C0341306C063
:10394000611104C08091B501D801C3C04D875E8765
:103950008D859E856A8B0E94481B6A898823E1F1C8
:103960006623D1F12091B501822F82958F7090E06E
:10397000029774F08091B0019091B10198878F8384
:103980001986DB86CA862C87CE0107960E94ED1A1F
:1039900086E0F801A0EBB1E001900D928A95E1F785
:1039A0000E949B1B0E948D1BFF24F394E5C04D8752
:1039B0005E878D859E850E949620292F22952F70E7
:1039C00030E0223031050CF0CBC09F7009F0C5C04B
:1039D000805E883008F4D0C0C8010E94ED1AE4CFA0
:1039E000C816D90608F453C0F601E81BF90BCF013D
:1039F000883C910508F450C0F12C7C2DD98AC88AE6
:103A000089890E944D1BE0EBF1E086E0DF011D9209
:103A10008A95E9F70E948D1BAFC0751314C034134B
:103A200012C0611110C08091B501F8018583C801F1
:103A30000E94ED1A86E0E0EBF1E0DF011D928A952D
:103A4000E9F7FE2C99C04D875E878D859E856A8B30
:103A50000E94481B6A89882309F4BECF662309F4B3
:103A6000BBCF2091B501822F82958F7090E0029795
:103A70000CF48ECF8091B0019091B1019A8389832B
:103A80001B82DD82CC822E83CE0101967FCF809572
:103A900090958C0D9D1DACCFF62E662309F49CCF1E
:103AA00075132EC034132CC02091B50120FD1FC00A
:103AB000822F82958F70D9F0D80115962C93159787
:103AC0008F3049F08F5F982F9295907F822F8F7063
:103AD000892B15968C93C8010E94ED1A86E0F80197
:103AE000A0EBB1E001900D928A95E1F793CF86E0CB
:103AF000F801A0EBB1E001900D928A95E1F73CC08E
:103B00004D875E878D859E850E94481B811140CF21
:103B10008091B50181608093B501C8010E94ED1AC2
:103B20002BC0662309F458CF4D875E878D859E850F
:103B30000E94481BF82E882309F44ECF86E0F80136
:103B4000A0EBB1E001900D928A95E1F780EB91E056
:103B50000E942C170E949B1B5DCF811139CF0CC096
:103B6000243031050CF038CF9F7009F431CFF801C3
:103B70009581907F09F02CCF8F2D62960FB6F89427
:103B8000DEBF0FBECDBFDF91CF911F910F91FF9090
:103B9000EF90DF90CF9008951F93CF93DF93CDB731
:103BA000DEB72C970FB6F894DEBF0FBECDBF4F83A4
:103BB000588769877A878B879C87CE0107960E94F2
:103BC000F61B882369F08F8198852A853B85232BF6
:103BD000F1F19F3F09F063C08F3F09F060C037C02B
:103BE00086E0FE013796DE01119601900D928A95CE
:103BF000E1F76F817885EA85FB85309741F17F3F5A
:103C000011F46F3F21F120917F0130E0C90101964D
:103C10008770992740917E0150E08417950709F439
:103C200047C069837A83FD83EC8396E0929FD0013D
:103C3000939FB00D1124A058BE4FFE013196019004
:103C40000D929A95E1F780937F010E946C1B16E01C
:103C500080917E0190917F018917C1F1189FC00169
:103C6000112480589E4F0E94F61B882379F1E09121
:103C70007E011E9FF0011124E058FE4F40815181CA
:103C800062817381848195810E945C1B80917E0199
:103C900090E001968770992780937E01D9CF4F815C
:103CA000588569857A858B859C850E945C1BCFCF62
:103CB0000E94221B10927F0110927E01E0EBF1E046
:103CC00086E0DF011D928A95E9F7C1CF2C960FB6E9
:103CD000F894DEBF0FBECDBFDF91CF911F91089545
:103CE000EF92FF920F931F93CF93DF938C01892B59
:103CF00009F46CC0F12CEE24E394E8012196F8015C
:103D00008491843740F4843008F051C0813081F0D0
:103D1000823019F15BC0853709F444C0A8F19CE7F3
:103D2000980F903708F052C08F770E94491841C011
:103D30000E5F1F4FFE01C49180E28C0F883048F463
:103D4000C7708E2D01C0880FCA95EAF70E944B21DB
:103D500014C08C2F0E9432172DC00E5F1F4FFE0122
:103D6000C49180E28C0F883058F4C7708E2D01C04A
:103D7000880FCA95EAF70E9451210E94F5201AC0C7
:103D80008C2F0E94491816C00E5F1F4FFE01C49170
:103D9000CC2381F08FE99FE00197F1F700C000008C
:103DA000C150F6CF0E5F1F4FFE01F49003C00E947A
:103DB00032178E018F2D882309F49FCFEFE9FFE0A2
:103DC0003197F1F700C000008150F5CFDF91CF911E
:103DD0001F910F91FF90EF90089508950C94ED1EA0
:103DE0000E94EE1E6093EC017093ED018093EE0152
:103DF0009093EF010C94141B08950C94F01E0F93F4
:103E00001F930091EC011091ED012091EE01309192
:103E1000EF01602B712B822B932B1F910F910C9430
:103E2000F01E0F931F930091EC011091ED01209172
:103E3000EE013091EF0160237123822393231F91C0
:103E40000F910C94F01E0F931F930091EC011091B1
:103E5000ED012091EE013091EF016027712782275B
:103E600093271F910F910C94F01E08950C94351F09
:103E70000E94361F6093E8017093E9018093EA0184
:103E80009093EB010C94141B60E070E0CB010C9458
:103E9000381F0F931F9341E050E060E070E08A010B
:103EA0009B0104C0000F111F221F331F8A95D2F7F8
:103EB000C901B8011F910F910C94381F0F931F93E4
:103EC00041E050E060E070E004C0440F551F661F01
:103ED000771F8A95D2F78091E8019091E901A0912E
:103EE000EA01B091EB018A019B01082B192B2A2BC7
:103EF0003B2BC901B8011F910F910C94381F0F93F0
:103F00001F9341E050E060E070E004C0440F551F93
:103F1000661F771F8A95D2F74095509560957095EA
:103F20008091E8019091E901A091EA01B091EB0143
:103F30008A019B01082319232A233B23C901B801C5
:103F40001F910F910C94381F0F931F9341E050E085
:103F500060E070E004C0440F551F661F771F8A950C
:103F6000D2F78091E8019091E901A091EA01B09126
:103F7000EB018A019B01082719272A273B27C90142
:103F8000B8011F910F910C94381F0F931F9300914C
:103F9000E8011091E9012091EA013091EB01602BD9
:103FA000712B822B932B1F910F910C94381F0F9321
:103FB0001F930091E8011091E9012091EA013091ED
:103FC000EB0160237123822393231F910F910C94A3
:103FD000381F0F931F930091E8011091E901209180
:103FE000EA013091EB0160277127822793271F9107
:103FF0000F910C94381F08952FE0929F800D11248B
:10400000A82FA695A695A695877051E001C0550FDB
:104010008A95EAF785E0A89FD001112420E030E0DE
:1040200070E0F901EA0FFB1FEA54FE4F4081CB011B
:10403000022E02C0969587950A94E2F7817099271F
:10404000819584278523842780832F5F3F4F2530E8
:10405000310539F708952FE0929F800D1124682FC4
:10406000669566956695982F977085E0689FB00174
:10407000112440E050E080E0FA01E60FF71FEA5417
:10408000FE4F208130E0092E02C0369527950A9414
:10409000E2F721703327042E01C0220F0A94EAF7B9
:1040A000822B4F5F5F4F4530510531F70895CF9216
:1040B000DF92EF92FF920F931F93CF93DF938C01C8
:1040C000C090EC01D090ED01E090EE01F090EF0196
:1040D0008091E8019091E901A091EA01B091EB0192
:1040E000C82AD92AEA2AFB2ACFE1D0E0D701C601A3
:1040F0000C2E04C0B695A795979587950A94D2F78C
:1041000080FF06C0B8018C2F0E94530B019721F449
:10411000219760F780E001C08C2FDF91CF911F9134
:104120000F91FF90EF90DF90CF900895CF93DF93A2
:10413000EC010E945720BE010E94530BDF91CF91EA
:1041400008951F93CF93DF93EB0190917D01992305
:1041500021F0CB010E94962013C0882349F0CB01A7
:104160000E945720182F682FCE010E94FC1F04C008
:10417000CB010E942B20182FBE01812F0E94530BD0
:10418000DF91CF911F9108958091F00185958595DC
:10419000859508958091F0018770089598E0899F32
:1041A00090011124262B2093F0010C945E1F209186
:1041B000F001809582238093F001982F977069F425
:1041C00030E0482F082E000C550B2417350729F036
:1041D0008595859585950C947F1F08959091F001A4
:1041E000977081E009F480E00895E0910D01F0916D
:1041F0000E01809114028083E0910D01F0910E0177
:10420000908180911302892B8083E0910D01F091C0
:104210000E01908180911202892B80838091F1019F
:10422000882381F0E0910D01F0910E019081892B9E
:10423000808380910D0190910E010E94DD218111FA
:104240001092F10180910D0190910E010C94E415F2
:1042500080911402089590911402892B8093140286
:1042600008958095909114028923809314020895F3
:1042700010921402089590911302892B80931302D7
:1042800008958095909113028923809313020895D5
:1042900010921302089590911202892B80931202BA
:1042A00008958095909112028923809312020895B7
:1042B0001092120208958093F10108951092F10175
:1042C00008958091F101089580E090E00E94BE2E53
:1042D00021E08D3E9E4F09F020E0822F089582E07C
:1042E00090E00C94B02E83E090E00C94B02E84E02B
:1042F00090E00C94B02E682F84E090E00C94C42ED3
:1043000086E090E00C94B02E682F86E090E00C944C
:10431000C42EAB01BC018FE090E00C94D62EAB0113
:10432000BC0183E190E00C94D62E60E070E0CB01FC
:104330000C948F2160E070E0CB010E9489210C94E5
:1043400095216DEE7EEF80E090E00E94E22E60E02D
:1043500082E090E00E94C42E60E083E090E00E9442
:10436000C42E1092EC011092ED011092EE01109209
:10437000EF0160E084E090E00E94C42E60E085E000
:1043800090E00E94C42E60E086E090E00E94C42E7F
:104390006FEF87E090E00E94C42E40E050E0BA0149
:1043A00088E090E00E94D62E60E08DE090E00E94D0
:1043B000C42E0C949A210C94A121FC013296809178
:1043C0001901882331F080917F0287FF02C09EE1AE
:1043D00001C096E080E0915028F021912223D9F38A
:1043E0008F5FF9CF08959C01FC0132969FEF80E02A
:1043F0004191461789F09F3F19F4411101C0982F50
:104400008F5F8630A9F79F3F39F0F901E90FF11D61
:1044100097FDFA95628308950895FC0132960896F7
:104420002081261301C010823196E817F907C1F7E1
:104430000895262F2695269526952E3168F4FC01A1
:10444000E20FF11D677021E030E001C0220F6A9594
:10445000EAF78281282B22830895262F2695269518
:1044600026952E3170F4FC01E20FF11D677021E0FA
:1044700030E001C0220F6A95EAF720958281282357
:104480002283089520911901222329F020917F028F
:1044900027FD0C9419220C94F32120911901222359
:1044A00029F020917F0227FD0C942D220C940D22DF
:1044B00020911901FC013296222331F080917F0274
:1044C00087FF02C08EE101C086E0DF011D928A9560
:1044D000E9F7089508950C946A220E946B22809156
:1044E0008602843061F11092160220E488E190E0A7
:1044F0000FB6F894A895809360000FBE20936000DB
:1045000080E00E94300880E00E94A8080E946B2290
:1045100083B7817F846083BF83B7816083BF7894D2
:10452000889583B78E7F83BF0FB6F894A895809146
:104530006000886180936000109260000FBE089553
:1045400008950895CF930E94A0220E94310E0E94E8
:10455000A122C0E08C2F0E94C90E892B29F4CF5FC5
:10456000C530C1F780E001C081E0CF910895089582
:104570000C94B7220E94221B0E948F230E94D81500
:104580000E94A8080C94B8221F920F920FB60F92A7
:1045900011248F939F93AF93BF9380911602811143
:1045A00013C080917B0290917C02A0917D02B0911A
:1045B0007E024196A11DB11D80937B0290937C02E7
:1045C000A0937D02B0937E02BF91AF919F918F9196
:1045D0000F900FBE0F901F90189582E084BD93E05E
:1045E00095BD9AEF97BD80936E0008952FB7F8940C
:1045F00080917B0290917C02A0917D02B0917E021D
:104600002FBF0895CF92DF92EF92FF920F931F93E7
:104610002FB7F89440917B0250917C0260917D020B
:1046200070917E022FBF6A017B01EE24FF248C0172
:1046300020E030E0C016D106E206F30610F4415047
:1046400051099A01281B390BC9011F910F91FF9045
:10465000EF90DF90CF90089578941F920F920FB64D
:104660000F9211248F939F93AF93BF9380917B02FE
:1046700090917C02A0917D02B0917E020196A11DD5
:10468000B11D80937B0290937C02A0937D02B09336
:104690007E02BF91AF919F918F910F900FBE0F90AF
:1046A0001F90189581E08093E00080E28093D8000D
:1046B0001092C9008FE19EE40197F1F700C000005D
:1046C00087E090EBDC0180938F0290939002A0939F
:1046D0009102B09392029CE088E10FB6F894A895FD
:1046E000809360000FBE90936000FFCF0E94642112
:1046F000811102C00E94DB210E946F21809315026C
:104700000E94772190E09093800280937F020E9424
:104710007321682F70E080E090E00C94FD1E0E94F1
:104720006421811102C00E94DB210E9480218093BC
:104730008102282F269530E02630310524F0817043
:104740008A60809381028091810280FF02C08695F9
:1047500001C080E00C94300820918102822F869560
:10476000482F50E04530510544F48F5F982F990F42
:10477000822F8170892B80938102809181028160D8
:10478000809381020E9484218091810286950C94FD
:10479000300880918102982F969591F09158990F49
:1047A0008170892B809381028E7F91E009F490E0E3
:1047B0008091810290FB80F9809381020E94842184
:1047C0008091810286950C9430088091810280FD51
:1047D00011C0816080938102813019F483E080935D
:1047E0008102809181020E948421809181028695BC
:1047F0000C94300808958091810280FF08C08E7F5C
:10480000809381020E94842180E00C9430080895F6
:104810008091810280FD0C94FB230C94E523909100
:104820008102892F86958F5F8F779170863028F46B
:10483000880F892B8093810202C09093810280911E
:1048400081028E7F91E009F490E08091810290FBDB
:1048500080F9809381020E94842180918102869553
:104860000C943008863008F085E0880F9091810222
:104870009170892B809381028E7F91E009F490E002
:104880008091810290FB80F9809381020E948421B3
:104890008091810286950C943008809137020895AA
:1048A000089508950895CF93DF93EC010E94272681
:1048B000823011F08430D9F580911901882339F0C4
:1048C00080917F0287FF03C060E282E002C068E05F
:1048D00081E08093E9008FEF9091E800815095FD91
:1048E00006C095ED9A95F1F700008111F5CF809102
:1048F000E80085FF1CC080911901811105C040E0CE
:1049000050E068E070E003C070E040E050E0CE01AD
:104910000E9444268091E8008E778093E80080E230
:10492000FE01A7E1B2E001900D928A95E1F7DF91D7
:10493000CF91089580918502811109C00E94D927E5
:104940000E9436288091E20084608093E2000895FE
:10495000109285020895089508950C94BA2242E0B9
:1049600061EC81E00E94532742E261EC82E00C940A
:10497000532780918802833009F460C030F481307D
:1049800071F0823009F499C008958A3009F485C025
:104990008B3009F46BC0893009F0A7C020C080912A
:1049A0008702813A09F0A1C08091E800877F809357
:1049B000E80080918B0290918C02892B21F460E2B7
:1049C00087E192E003C060E080E090E070E00E9448
:1049D0008F268091E8008B778093E800089580917E
:1049E0008702813209F081C080918B0290918C0204
:1049F000029708F07AC08091E800877F8093E800F2
:104A00008091E80082FD05C0809186028111F8CF77
:104A10006CC02091F3008091F20090E0922B0297FD
:104A200029F48091F1008B7F813021F48091F10095
:104A3000809337028091E8008B7753C08091870282
:104A4000813A09F052C080918B0290918C02892B9F
:104A500009F04BC08091E800877F8093E800809147
:104A6000E80080FFFCCF8091190136C08091870259
:104A70008132D9F580918B0290918C02892BA9F516
:104A80008091E800877F8093E8000E9488278091CA
:104A90008902809319010C94221B80918702813234
:104AA00021F58091E800877F8093E8000E948827A5
:104AB00080918A0280933802089580918702813A1A
:104AC000A1F48091E800877F8093E8008091E8005E
:104AD00080FFFCCF809138028093F1008091E80044
:104AE0008E778093E8000C948827089584B7877F99
:104AF00084BF0FB6F894A895809160008861809378
:104B00006000109260000FBE80E8809361001092F8
:104B100061000E9432160E94D9270E943628809197
:104B2000E20084608093E20078940E94C52A0E948B
:104B300038168FE091E00E94D3158091860285306F
:104B400069F40E946D22809184028823B1F30E944F
:104B5000A222882391F30E942E26EFCF0E944216B4
:104B60000E945E15EACF0C94B525292F33272330F8
:104B70003105C9F064F42130310581F0223031056E
:104B800009F04CC08BE390E021E63DE04BC02132C0
:104B9000310521F12232310589F140C082E190E0F6
:104BA0002CE93DE03FC099278130910571F02CF44C
:104BB000892BA1F5EDE5FDE00DC08230910541F0B6
:104BC000039761F5EBE3FDE005C0EDE4FDE002C015
:104BD000E1E4FDE0849190E09F0124C0611571053E
:104BE00041F061307105D1F489E090E02CE83DE0BE
:104BF00019C089E090E023E73DE014C0611571051C
:104C000041F06130710551F48BE390E02EEA3DE014
:104C100009C080E490E029EE3DE004C080E090E02F
:104C200020E030E0FA013183208308950895CF9386
:104C3000C82F0E941626C0933902CF910895809103
:104C40008602843011F081E0089582E00895809119
:104C50003902811102C00C941F26089580E189BD9C
:104C600082E189BD09B400FEFDCF8091D8008F7D1F
:104C70008093D8008091E00082608093E000809172
:104C8000E00081FDFCCF0895CF92DF92EF92FF927A
:104C90000F931F93CF93DF93EC018B016A010E9466
:104CA000A727811133C0C114D10439F0F6018081E6
:104CB0009181081B190BC80FD91FE12CF12C01158C
:104CC000110519F18091E80085FD16C08091E8007A
:104CD0008E778093E800C114D10449F0F6018081F9
:104CE0009181E80EF91EF182E08285E00FC00E94FA
:104CF000A727882321F30AC089918093F1000150EE
:104D00001109FFEFEF1AFF0ADACF80E0DF91CF91B0
:104D10001F910F91FF90EF90DF90CF900895209119
:104D20008D0230918E022617370748F06115710504
:104D300039F42091E8002E772093E80001C0B901F2
:104D400040E061157105A9F120918602222309F442
:104D500043C0253009F442C02091E80023FD40C043
:104D60002091E80022FD32C02091E80020FFE9CF29
:104D70004091F3002091F20030E0342BFC01CF0190
:104D80006115710559F02830310540F48191809307
:104D9000F100615071092F5F3F4FF1CF41E02830A2
:104DA000310509F040E02091E8002E772093E800DB
:104DB000C8CF4111C9CF0AC080918602882361F013
:104DC000853061F08091E80083FD0AC08091E800A1
:104DD00082FFF2CF80E0089582E0089583E0089595
:104DE00081E0089520918D0230918E0226173707B9
:104DF00048F06115710539F42091E8002E77209371
:104E0000E80001C0B901FC0120E06115710591F1D4
:104E100080918602882309F440C0853009F43FC0A0
:104E20008091E80083FD3DC08091E80082FD2FC0A5
:104E30008091E80080FFE9CF2091F3008091F2009B
:104E400090E0922B6115710559F08830910540F47E
:104E500024912093F1003196615071090196F2CFAF
:104E600021E0089709F020E08091E8008E77809398
:104E7000E800CBCF2111CCCF0AC0809186028823D5
:104E800061F0853061F08091E80083FD0AC0809177
:104E9000E80082FFF2CF80E0089582E0089583E089
:104EA000089581E00895982F973058F59093E90080
:104EB000981739F07091EC002091ED005091F000BE
:104EC00003C0242F762F50E021FF19C03091EB0052
:104ED0003E7F3093EB003091ED003D7F3093ED004D
:104EE0003091EB0031603093EB007093EC00209335
:104EF000ED005093F0002091EE0027FF07C09F5F68
:104F0000D3CF8F708093E90081E0089580E0089509
:104F10008091870287FF11C08091E80082FD05C063
:104F2000809186028111F8CF11C08091E8008B77C3
:104F30000BC080918602882349F08091E80080FFB1
:104F4000F8CF8091E8008E778093E8000895209153
:104F5000E4003091E50095E64091EC00842F8170EB
:104F600040FF22C08091E80080FD1CC08091860235
:104F7000882391F0853091F08091EB0085FD10C081
:104F80004091E4005091E5004217530729F39A013C
:104F9000915011F784E0089582E0089583E0089528
:104FA00081E0089580E008954091E80042FFDECF5F
:104FB00008950E9447280E944F28E0EEF0E080818B
:104FC00081608083E8EDF0E080818F77808319BC79
:104FD000A7EDB0E08C918E7F8C9380818F7E808353
:104FE0001092850208950F931F93CF93DF930E9431
:104FF00047280E944F28C8EDD0E088818F778883AA
:1050000088818068888388818F7D888319BC10920D
:10501000860210928202109284021092830200EEA5
:1050200010E0F80180818B7F808388818160888394
:1050300042E060E080E00E945327E1EEF0E08081F2
:105040008E7F8083E2EEF0E08081816080838081CA
:1050500088608083F80180818E7F80838881806171
:105060008883DF91CF911F910F910895E8EDF0E0D3
:1050700080818F7E8083E7EDF0E080818160808396
:1050800084E082BF81E0809385020C94F327E8EDF1
:10509000F0E080818E7F80831092E200089510926C
:1050A000DA001092E10008951F920F920FB60F924E
:1050B00011242F933F934F935F936F937F938F931D
:1050C0009F93AF93BF93EF93FF938091E10082FF93
:1050D0000BC08091E20082FF07C08091E1008B7FCE
:1050E0008093E1000E94C42A8091DA0080FF1FC0F3
:1050F0008091D80080FF1BC08091DA008E7F809362
:10510000DA008091D90080FF0DC080E189BD82E185
:1051100089BD09B400FEFDCF81E0809386020E9424
:105120009A2405C019BC109286020E94A82480917E
:10513000E10080FF19C08091E20080FF15C08091DE
:10514000E2008E7F8093E2008091E2008061809394
:10515000E2008091D80080628093D80019BC85E07D
:10516000809386020E94AC248091E10084FF30C0CD
:105170008091E20084FF2CC080E189BD82E189BD7D
:1051800009B400FEFDCF8091D8008F7D8093D800B8
:105190008091E1008F7E8093E1008091E2008F7E1C
:1051A0008093E2008091E20081608093E200809130
:1051B0008202882311F084E007C08091E30087FD1C
:1051C00002C081E001C083E0809386020E94AD248A
:1051D0008091E10083FF29C08091E20083FF25C018
:1051E0008091E100877F8093E10082E080938602D6
:1051F000109282028091E1008E7F8093E100809185
:10520000E2008E7F8093E2008091E20080618093D3
:10521000E20042E060E080E00E9453278091F000CD
:1052200088608093F0000E94AB24FF91EF91BF91C2
:10523000AF919F918F917F916F915F914F913F912E
:105240002F910F900FBE0F901F9018951F920F92E5
:105250000FB60F9211242F933F934F935F936F9349
:105260007F938F939F93AF93BF93CF93DF93EF93EE
:10527000FF93C091E900CF708091EC00D82FD170DE
:1052800080FDD0E81092E9008091F000877F809344
:10529000F00078940E946A291092E9008091F00051
:1052A00088608093F000CD2BCF70C093E900FF9110
:1052B000EF91DF91CF91BF91AF919F918F917F91AE
:1052C0006F915F914F913F912F910F900FBE0F9073
:1052D0001F9018951F93CF93DF93CDB7DEB7AA9792
:1052E0000FB6F894DEBF0FBECDBFE7E8F2E088E06E
:1052F0008E0F9091F10091938E13FBCF0E94B924F1
:105300008091E80083FF28C18091870290918802F4
:10531000492F50E04A30510508F01EC1FA01E55608
:10532000FF4F0C94832E803821F0823809F014C18D
:1053300008C08091830290918402992389F0826051
:105340000FC080918B028F70873008F005C1809369
:10535000E9008091EB0085FB882780F91092E90035
:105360009091E800977F9093E8008093F10010926D
:10537000F100D0C0282F2D7F09F0EEC0882319F04E
:10538000823061F0E9C080918902813009F0E4C087
:10539000933009F080E0809384022EC080918902CE
:1053A00081112AC080918B028F702FEF280F263039
:1053B00008F0D2C08093E9002091EB0020FF1CC0D0
:1053C000933021F48091EB00806214C09091EB0047
:1053D00090619093EB0021E030E0A90102C0440FFE
:1053E000551F8A95E2F74093EA001092EA008091F7
:1053F000EB0088608093EB001092E9008091E80058
:10540000877F8093E8000E948827A6C08111A4C0EE
:10541000109189021F778091E3008078812B80931F
:10542000E3008091E800877F8093E8000E9488274E
:105430008091E80080FFFCCF8091E300806880933A
:10544000E300111102C082E001C083E08093860274
:1054500083C08058823008F07FC08091890290918B
:105460008A028C3D53E0950779F583E08A838AE2CE
:1054700089834FB7F894DE01139620E03EE051E2B5
:10548000E32FF0E050935700E49120FF03C0E29532
:10549000EF703F5FEF708E2F90E0EA3010F0C7960C
:1054A00001C0C0968D939D932F5F243149F74FBF64
:1054B0008091E800877F8093E8006AE270E0CE0187
:1054C00001960E948F2615C060918B0270918C020C
:1054D000AE014F5F5F4F0E94B325BC01892BE1F104
:1054E0009091E800977F9093E80089819A810E94CB
:1054F000F2268091E8008B778093E8002DC08038F9
:1055000059F58091E800877F8093E80080918202BE
:105510008093F1008091E8008E7773CF81111CC0D9
:10552000909189029230C0F48091E800877F809347
:10553000E800909382020E94882780918202811164
:1055400006C08091E30087FD02C081E001C084E0D5
:10555000809386020E94AF248091E80083FF0AC0F6
:105560008091E800877F8093E8008091EB00806263
:105570008093EB00AA960FB6F894DEBF0FBECDBFA6
:10558000DF91CF911F9108950895CF938091860266
:105590008823A1F0C091E900CF709091EC00892F91
:1055A000817090FD80E8C82B1092E9008091E8009E
:1055B00083FD0E946A29CF70C093E900CF910895BE
:1055C0005058BB27AA270E94F82A0C94A32C0E94AB
:1055D000952C38F00E949C2C20F039F49F3F19F450
:1055E00026F40C946B2C0EF4E095E7FB0C94652CE0
:1055F000E92F0E94B42C58F3BA1762077307840787
:10560000950720F079F4A6F50C94D62C0EF4E095CD
:105610000B2EBA2FA02D0B01B90190010C01CA016C
:10562000A0011124FF27591B99F0593F50F4503E17
:1056300068F11A16F040A22F232F342F4427585F09
:10564000F3CF469537952795A795F0405395C9F721
:105650007EF41F16BA0B620B730B840BBAF09150D9
:10566000A1F0FF0FBB1F661F771F881FC2F70EC078
:10567000BA0F621F731F841F48F48795779567954B
:10568000B795F7959E3F08F0B0CF9395880F08F037
:105690009927EE0F9795879508950E94612B0C949A
:1056A000A32C0E949C2C58F00E94952C40F029F4C9
:1056B0005F3F29F00C94652C51110C94D72C0C945D
:1056C0006B2C0E94B42C68F39923B1F3552391F30A
:1056D000951B550BBB27AA2762177307840738F061
:1056E0009F5F5F4F220F331F441FAA1FA9F335D0BE
:1056F0000E2E3AF0E0E832D091505040E695001C72
:10570000CAF72BD0FE2F29D0660F771F881FBB1F2B
:10571000261737074807AB07B0E809F0BB0B802D09
:10572000BF01FF2793585F4F3AF09E3F510578F035
:105730000C94652C0C94D72C5F3FE4F3983ED4F383
:10574000869577956795B795F7959F5FC9F7880F09
:10575000911D9695879597F90895E1E0660F771F5B
:10576000881FBB1F621773078407BA0720F0621BEC
:10577000730B840BBA0BEE1F88F7E095089529F49C
:1057800016F00C94652C0C94D62C0C946B2C0E9467
:10579000BC2CA8F39638A0F707F80F92E8942BE3F7
:1057A0003AEA48EB5FE70E94692D0F920F920F9241
:1057B0004DB75EB70F920E941F2DEAE4F1E00E9400
:1057C0006E2C4F915F91EF91FF91E595EE1FFF1FBA
:1057D00049F0FE57E0684427EE0F441FFA95E1F7C1
:1057E0004195550B0E94E92C0F9007FE0C94DD2C7F
:1057F00008950E94BC2C88F09F5798F0B92F9927E4
:10580000B751B0F0E1F0660F771F881F991F1AF0AB
:10581000BA95C9F714C0B13091F00E94D62CB1E00E
:1058200008950C94D62C672F782F8827B85F39F00D
:10583000B93FCCF3869577956795B395D9F73EF444
:1058400090958095709561957F4F8F4F9F4F0895EC
:10585000E89409C097FB3EF490958095709561950A
:105860007F4F8F4F9F4F9923A9F0F92F96E9BB27C0
:105870009395F695879577956795B795F111F8CF3C
:10588000FAF4BB0F11F460FF1BC06F5F7F4F8F4FA7
:105890009F4F16C0882311F096E911C0772321F09D
:1058A0009EE8872F762F05C0662371F096E8862F35
:1058B00070E060E02AF09A95660F771F881FDAF78C
:1058C000880F9695879597F9089597F99F6780E8CF
:1058D00070E060E008959FEF80EC0895DF93CF9330
:1058E0001F930F93FF92EF92DF927B018C016894DC
:1058F00006C0DA2EEF010E94662DFE01E894A59104
:105900002591359145915591A6F3EF010E94F82A12
:10591000FE019701A801DA9469F7DF90EF90FF90FC
:105920000F911F91CF91DF91089500240A941616CC
:10593000170618060906089500240A94121613067D
:10594000140605060895092E0394000C11F488230B
:1059500052F0BB0F40F4BF2B11F460FF04C06F5F27
:105960007F4F8F4F9F4F089557FD9058440F551FFD
:1059700059F05F3F71F04795880F97FB991F61F0D1
:105980009F3F79F087950895121613061406551F48
:10599000F2CF4695F1DF08C0161617061806991FB4
:1059A000F1CF86957105610508940895E894BB27A9
:1059B00066277727CB0197F908959B01AC0160E03A
:1059C00070E080E89FE30C944D2B0C94652C0C94B4
:1059D000C82D0E94BC2CD8F39923C9F3940F511DF4
:1059E000A3F39150504094F059F0882332F0660FA1
:1059F000771F881F91505040C1F79E3F51052CF7EB
:105A0000880F911D9695879597F908955F3FACF0A3
:105A1000983E9CF0BB27869577956795B79508F4D7
:105A2000B1609395C1F7BB0F58F711F460FFE8CF51
:105A30006F5F7F4F8F4F9F4FE3CF0C94D72CFA01AE
:105A4000DC01AA0FBB1F9B01AC01BF5728F4222722
:105A500033274427507820C0B75190F4AB2F00244F
:105A6000469537952795011CA395D2F3002071F038
:105A7000220F331F441FB395DAF30ED00C94E02AA3
:105A800061307105A0E88A07B94630F49B01AC018A
:105A90006627772788279078309621F020833183F6
:105AA0004283538308950E94662D0C94A32C0E9478
:105AB000952C38F00E949C2C20F0952311F00C942A
:105AC000652C0C946B2C11240C94D72C0E94B42CB4
:105AD00070F3959FC1F3950F50E0551F629FF00141
