:100000000C9479070C94BD070C94BD070C94BD07A4
:100010000C94BD070C94BD070C94BD070C94BD0750
:100020000C94BD070C94BD070C942D2D0C94FF2D42
:100030000C94A9230C94BD070C94BD070C94BD0728
:100040000C94BD070C94BD070C94BD070C94BD0720
:100050000C94BD070C9410240C94BD070C94BD07A0
:100060000C94BD070C94BD070C94BD070C94BD0700
:100070000C94BD070C94BD070C94BD070C94BD07F0
:100080000C94BD070C94BD070C94BD070C94BD07E0
:100090000C94BD070C94BD070C94BD070C94BD07D0
:1000A0000C94BD070C94BD070C94BD073908430898
:1000B0004D08570860086A08750837093D09410965
:1000C000440948094C095009540959095D09610955
:1000D000650968096C097009740978097D095B195B
:1000E0005B1995199519D819FA19901B901B401A8C
:1000F000901BE71AE71A5E1B651B901B8B1BF41AFB
:10010000F41AF41AF41AF41AF41AF41AF41AF41A7F
:10011000F41AF41AF41AF41AF41AF41AF41A061B5C
:10012000161B1D1B241B2E1B241C241C371C371CB8
:100130002D1C371C371C371C241C241C331C371C5B
:10014000371C331C642E8B2E792F8B2E792FD32EB8
:10015000F62E792F4C2F5B2F07634236B79BD8A71B
:100160001A39685618AEBAAB558C1D3CB7CC5763DC
:10017000BD6DEDFD753EF6177231BF000000803F8A
:1001800005A84CCDB2D44EB93836A9020C50B9915D
:100190008688083CA6AAAA2ABE000000803F60000C
:1001A0007E00013B00014A024A01E10120022002D7
:1001B000E10001E20150025002E20001E2014F02BF
:1001C0004F02E20001E20150025002E20000F001A1
:1001D000F002F003F004F005F006F029001E001F05
:1001E00000200021002200230024002500260027F3
:1001F000002D002E0000002A002B00000014001A21
:10020000000800150017001C0018000C0012001355
:10021000002F0030003100015100000400160007DB
:100220000009000A000B000D000E000F003300341F
:100230000028000000E10000001D001B000600195E
:1002400000050011001000360037003800E500E519
:10025000005200E000E2000000E300000000002C7B
:1002600000000000000000E6000151500051004F66
:100270000035003A003B003C003D003E003F00409E
:10028000004100420043004400450001004C0001D1
:100290000000004A0052004D004B00010001000127
:1002A00000023001000130C45CC15CC05C01000090
:1002B00000500051004F004E00010003304A000181
:1002C000004D000100CB5C3900000001000100017D
:1002D000000100010001006A006900A800AA00A94D
:1002E0000001000100010001000100010000000107
:1002F00000010000000100000001000000010001F9
:10030000004A0001004D0001000100010001000150
:1003100000010001000100010001000100010001D5
:1003200000010001000100000001000100010001C6
:1003300000010001000100010001000100010001B5
:1003400000010001000000010001000100010001A6
:100350000001000100010001000100010001000096
:100360000001000100010001000100010001000185
:100370000001000100010001000100010001000175
:100380000001000000010001000000010000000168
:100390000000000100010001000100010001000156
:1003A0000001000100010001000100010001000145
:1003B0000001000100010001000100010000000136
:1003C0000001000100010001000100010001000125
:1003D0000001000100010001000100000001000116
:1003E0000001000100010001000100010001000105
:1003F00000010001000000010001000100010001F6
:1004000000010001000100010001000100010001E4
:1004100000010001000100010000000100010000D6
:1004200000010000000100000001000100010001C6
:1004300000010001000100010001000100010001B4
:1004400000010001000100010001000100010001A4
:100450000001000000010001000100010001000195
:100460000001000100010001000100010001000184
:100470000000000100010001000100010001000175
:100480000001000100010001000100000001000165
:100490000001000100010001000100010001000154
:1004A0000001000100010001000100010001000045
:1004B0000001000100000001000000010000000137
:1004C0000001000100010001000100010001000124
:1004D0000001000100010001000100010001000114
:1004E0000001000100010001000000010001000105
:1004F00000010001000100010001000100010001F4
:1005000000010001000100000001000100010001E4
:1005100000010001000100010001000100010001D3
:1005200000000001000100010001000100010001C4
:1005300000010001000100010001000100010001B3
:1005400000010001000000010001000000010000A6
:100550000001000000010001000100010001000194
:100560000001000100010001000100010001000183
:100570000001000100010001000100010001000074
:100580000001000100010001000100010001000163
:100590000001000100010001000100010000000154
:1005A0000001000100010001000100010001000143
:1005B0000001000100010000000100010001000134
:1005C0000001000100010001000100010001000123
:1005D0000001000100010001000100000001000114
:1005E0000000000100000001000000010001000106
:1005F00000010001000100010001000100010001F3
:1006000000010001000100010001000100010001E2
:1006100000010001000000010001000100010001D3
:1006200000010001000100010001000100010001C2
:1006300000010000000100010001000100010001B3
:1006400000010001000100010001000100000001A3
:100650000001000100010001000100010001000192
:100660000001000100010001000100010001000182
:100670000000000100010000000100000001000076
:100680000001000100010001000100010001000162
:100690000001000100010001000100010001000152
:1006A0000001000100010001000100000001000143
:1006B0000001000100010001000100010001000132
:1006C0000001000100010001000000010001000123
:1006D0000001000100010001000100010001000112
:1006E0000001000000010001000100010001000103
:1006F00000010001000100010001000100010001F2
:1007000000010001000100000001000100000001E3
:1007100000000001000000010001000100010001D3
:1007200000010001000100010001000100010001C1
:1007300000010001000100010001000100010001B1
:1007400000000001000100010001000100010001A2
:100750000001000100010001000100010001000092
:100760000001000100010001000100010001000181
:100770000001000100010001000000010001000172
:100780000001000100010001000100010001000161
:100790000001000100010001000100010000000152
:1007A0000001000000010000000100000001000144
:1007B0000001000100010001000100010001000131
:1007C0000001000100010001000100010001000121
:1007D0000001000100010000000100010001000112
:1007E0000001000100010001000100010001000101
:1007F00000010001000000010001000100010001F2
:1008000000010001000100010001000100010000E1
:1008100000010001000100010001000100010001D0
:1008200000010001000100010001000100010001C0
:1008300000010000000100010000000100000001B3
:1008400000000001000100010001000100010001A1
:100850000001000100010001000100010001000190
:100860000001000100010001000100010000000181
:100870000001000100010001000100010001000170
:100880000001000100010001000100000001000161
:100890000001000100010001000100010001000150
:1008A0000001000100000001000100010001000141
:1008B0000001000100010001000100010001000130
:1008C0000001000100010001000000010001000022
:1008D0000001000000010000000100010001000112
:1008E0000001000100010001000100010001000100
:1008F00000010001000100010001000100010001F0
:1009000000010000000100010001000100010001E0
:1009100000010001000100010001000100010001CF
:1009200000000001000100010001000100010001C0
:1009300000010001000100010001000000010001B0
:10094000000100010001000100010001000100019F
:100950000001000100010001000100010001000090
:100960000001000100000001000000010000000182
:10097000000100010001000100010001000100016F
:10098000000100010001000100010001000100015F
:100990000001000100010001000000010001000150
:1009A000000100010001000100010001000100013F
:1009B0000001000100010000000100010001000130
:1009C000000100010001000100010001000100011F
:1009D0000000000100010001000100010001000110
:1009E00000010001000100010001000100010001FF
:1009F00000010001000000010001000000010000F2
:100A000000010000000100010001000100010001DF
:100A100000010001000100010001000100010001CE
:100A200000010001000100010001000100010000BF
:100A300000010001000100010001000100010001AE
:100A4000000100010001000100010001000000019F
:100A5000000100010001000100010001000100018E
:100A6000000100010001000000010001000100017F
:100A7000000100010001000100010001000100016E
:100A8000000100010001000100010000000100015F
:100A90000000000100000001000000010001000151
:100AA000000100010001000100010001000100013E
:100AB000000100010001000100010001000100012E
:100AC000000100010000000100010001000100011F
:100AD000000100010001000100010001000100010E
:100AE00000010000000100010001000100010001FF
:100AF00000010001000100010001000100000001EF
:100B000000010001000100010001000100010001DD
:100B100000010001000100010001000100010001CD
:100B200000000001000100000001000000010000C1
:100B300000010001000100010001000000000000B0
:100B40000000002A2B280000000000000000000028
:100B500000000000000029000000002C1E342021AD
:100B60002224342627252E362D3738271E1F2021F4
:100B700022232425263333362E37381F0405060753
:100B800008090A0B0C0D0E0F10111213141516176D
:100B900018191A1B1C1D2F3130232D35040506078B
:100BA00008090A0B0C0D0E0F10111213141516174D
:100BB00018191A1B1C1D2F3130354C000000000085
:100BC0000000000000000000000000000000000025
:100BD0000000000000000000000000000101010111
:100BE00001010001010101000000000000000000FF
:100BF00000000000000100010001010101010101EC
:100C000001010101010101010101010101010101D4
:100C100001010101010100000001010000000000CC
:100C200000000000000000000000000000000000C4
:100C3000000000000000010101010000046801F053
:100C400000B40078005A007F3F1F643214643214ED
:100C5000783C1E1E140A050000000000010101017D
:100C60000101010101020202020202020202030367
:100C70000303030303030404040404040505050536
:100C800005060606060607070707080808080909F3
:100C9000090A0A0A0A0B0B0B0C0C0C0D0D0D0E0E9B
:100CA0000F0F0F1010111111121213131414151528
:100CB00016161717181819191A1A1B1C1C1D1D1E99
:100CC0001F1F2020212222232425252627272829EB
:100CD0002A2B2B2C2D2E2F2F303132333435363614
:100CE0003738393A3B3C3D3E3F404142434446471A
:100CF00048494A4B4C4D4F50515253555657585AEC
:100D00005B5C5E5F606263646667696A6C6D6E708F
:100D10007173747678797B7C7E8081838486888AFF
:100D20008B8D8F91929496989A9B9D9FA1A3A5A736
:100D3000A9ABADAFB1B3B5B7B9BBBDBFC1C4C6C830
:100D4000CACCCFD1D3D6D8DADCDFE1E4E6E8EBEDEC
:100D5000F0F2F5F7FAFCFF0403300000000A034448
:100D6000005A00360030000000080364006F007570
:100D70000000000403090409026D00040100A0FA48
:100D800009040000010301010009211101000122F1
:100D900040000705810308000A090401000103015E
:100DA0000200092111010001224D000705820308FC
:100DB000000A0904020001030000000921110100DA
:100DC000012236000705830308000A090403000115
:100DD00003000000092111010001223900070584E8
:100DE000032000011201100100000008EDFE606008
:100DF00001000102030105010906A101050719E02F
:100E000029E71500250195087501810205081901DA
:100E10002905950575019102950175039101050755
:100E2000190029F71500250195F875018102C00503
:100E3000010980A10185021601002603001A810024
:100E40002A8300751095018100C0050C0901A101DC
:100E50008503160100269C021A01002A9C027510C7
:100E600095018100C005010902A1010901A1000548
:100E700009190129051500250195057501810295BE
:100E800001750381010501093009311581257F951F
:100E9000027508810609381581257F95017508813D
:100EA00006050C0A38021581257F95017508810613
:100EB000C0C005010906A101050719E029E71500D1
:100EC00025019508750181029501750881010508C4
:100ED0001901290595057501910295017503910187
:100EE0000507190029FF150026FF009506750881E2
:100EF00000C011241FBECFEFDAE0DEBFCDBF04B6C5
:100F000003FE24C08091B5029091B602A091B70271
:100F1000B091B8028730904BA740B04BB9F4109213
:100F2000B5021092B6021092B7021092B80214BE27
:100F300084B7877F84BF88E10FB6F8948093600000
:100F4000109260000FBEE0E0F8E3099511E0A0E028
:100F5000B1E0E2E0F7E602C005900D92AE33B107D2
:100F6000D9F722E0AEE3B1E001C01D92A53BB20784
:100F7000E1F70E94572A0C947F330C940000FC0187
:100F8000613051F028F0623059F0633069F012C0DE
:100F90008281811112C00EC08281811111C00AC0EC
:100FA0008281811110C006C08281882319F085EAF0
:100FB00091E0089580E090E0089584EC91E0089538
:100FC0008BEB91E0089582EB91E0089508950895E8
:100FD000FB018932910549F118F44F97E1F039C0CE
:100FE000813E910521F0823E910559F032C0828107
:100FF000882321F091E090933F01089510923F01E2
:1010000028C08281882321F091E090933E010895C9
:1010100010923E011EC082818823D9F090913E013A
:101020009923C1F082EA91E010C08281882389F07F
:1010300090913F01992319F080EA91E006C09091C8
:101040003E01992339F08EE991E00E94B70B80E0D0
:10105000089581E00895462F50E04730510508F08B
:1010600050C0FA01EA5AFF4FDC0112968C910C94A1
:101070001733882309F445C00E94F51281E00E94CD
:10108000DF1240E03AC08823E1F10E94F51281E0CE
:101090000E94DF1240E061E631C0882391F10E9496
:1010A000F51281E00E94DF1240E06FEF27C0882335
:1010B00041F10E94F51281E00E94DF1240E008C079
:1010C0008823F9F00E94F51281E00E94DF124FEFB1
:1010D0006FEF09C08823A9F00E94F51281E00E94F9
:1010E000DF124FEF60E080E00AC0882351F00E94D9
:1010F000F51281E00E94DF1240EF60E08FEF0C9468
:101100000511089581FF02C0229A01C022982A98F1
:10111000089581E008950C94E8070E94121C2FEFB7
:1011200084E39CE0215080409040E1F700C0000043
:101130000C943624FF920F931F93CF93DF938C016F
:10114000FC01C081D18180919801811113C08281FD
:10115000882349F0CE010E946821F82E682FCE0125
:101160000E940E2104C0CE010E943C21F82EBE0137
:101170008F2D04C0CE010E946821BE010E942E0C5A
:10118000EC01B8010E948B08882309F490C2B801D1
:10119000CE010E94C40E882309F489C2C93CFCE533
:1011A000DF0741F4F8018281882309F480C20E949C
:1011B000BF107DC2CA3C8CE5D80708F037C1C13CDE
:1011C0009CE5D90761F4F8018281882309F46FC294
:1011D0000E943A228272F1F00E94EC1268C2C23C74
:1011E000ECE5DE07D0F0F8018281C53CFCE5DF07C5
:1011F00009F4F1C008F001C1C33CECE5DE0709F4D5
:10120000F0C008F0F4C0882309F451C20E943A22C9
:10121000827211F30E94E2124AC2C531FCE5DF0777
:1012200008F0A4C0C2308CE5D80708F478C0F801F3
:101230008281882309F47FC00E949C22811102C010
:101240000E9476220E94B92290E09093A602809399
:10125000A502FE01E350FC45E231F10520F4E35A1A
:10126000FF4F0C9417338091A502816003C08091D9
:10127000A50282608093A5024BC08091A502846084
:10128000F9CF8091A50213C08091A5028061F2CFB1
:101290008091A5028062EECF8091A5028064EACFA2
:1012A0008091A5028068E6CF8091A5028460886065
:1012B000E1CF8091A5028E7FDDCF8091A5028D7F49
:1012C000D9CF8091A5028B7FD5CF8091A50213C085
:1012D0008091A5028F7ECECF8091A5028F7DCACF4F
:1012E0008091A5028F7BC6CF8091A5028F77C2CF58
:1012F0008091A5028B7F877FBDCF9091A50297FB40
:10130000882780F921E0822780FB97F99093A50236
:101310008091A5020E94BD220E94121CC8C1C11565
:101320009CE5D90781F0C130DC45A9F081E08093CC
:10133000450180934601C801DF91CF911F910F9124
:10134000FF900C948908F8018281882309F4AFC1C9
:101350000E948D08ACC1F8018281882309F4A7C1DD
:1013600080913002816080933002A1C1C531FCE5DB
:10137000DF0729F50E943A22382FF8012281809157
:10138000020190910301222371F03A7A21E009F4DD
:1013900020E020934001222311F065E301C069E2BF
:1013A0000E94322309C020914001222311F065E3FD
:1013B00001C069E20E943D230E94072278C1C03C1F
:1013C000DC4509F0B3CFF8018281882309F46FC1AD
:1013D0000E944D136CC1882309F469C10E94251233
:1013E00066C1882309F463C10E94ED1160C188239E
:1013F00009F45DC10E9406125AC1C73C9CE5D90799
:1014000031F4882309F453C10E945A1250C1C83CD8
:10141000DC4530F4882309F44AC10E94401247C1D8
:10142000882309F444C10E94751241C1C13DFCE505
:10143000DF0749F4F8018281882309F438C188E183
:101440000E94DF1234C1C23D8CE5D80708F087C086
:10145000F8018281CD3CFCE5DF07A1F4882309F483
:1014600026C10E94B110663071058105910540F0DA
:101470000E94B110683071058105910508F4CACE4B
:1014800086E0DECFCE3C9CE5D90730F5CB3CECE5E1
:10149000DE0729F4882309F40AC181E0D1CFCC3CCE
:1014A000DC4530F4882309F402C10E94D410FFC047
:1014B000882309F4FCC00E94B110623071058105D7
:1014C000910540F00E94B1106530710581059105CC
:1014D00008F4A0CE82E0B4CFCF3C9CE5D907A1F4BC
:1014E000882309F4E4C00E94B1106F3071058105B2
:1014F000910540F00E94B11064317105810591059C
:1015000008F488CE8FE09CCFC03DDC45A0F4882352
:1015100009F4CDC00E94B1106930710581059105B3
:1015200040F00E94B1106E3071058105910508F4FC
:1015300071CE89E085CF882309F4B9C00E94B1102B
:10154000653171058105910540F00E94B110673148
:1015500071058105910508F45DCE85E171CFC53D2A
:10156000FCE5DF0739F5F8018281882361F01092EC
:1015700046010E94DB23909344018093430180E263
:101580000E940B1994C08091460181110FC0809177
:101590004301909144010E94E723883C910530F477
:1015A00087E20E94B21787E20E94AA1880E20E9496
:1015B00012197DC0C63D8CE5D80708F043C0F8017C
:1015C0008281C33DFCE5DF0729F4882309F46FC05D
:1015D00083E236CFC43DDC45A0F4882309F467C01C
:1015E0000E94B110693171058105910540F00E949A
:1015F000B110623271058105910508F40BCE89E1C5
:101600001FCF882351F0109245010E94DB23909355
:1016100042018093410182E0B3CF80914501811165
:101620000FC080914101909142010E94E723883CC4
:10163000910530F486E20E94B21786E20E94AA1851
:1016400082E0B5CFC93DECE5DE0731F4F8018281D7
:10165000882369F180E009C0CA3DFCE5DF0741F459
:10166000F8018281882319F182E00E94F32A1FC0C9
:10167000C63DDC4509F05ACEF8018281811177CF51
:1016800080914601811192CF809143019091440154
:101690000E94E723883C910508F088CF80E20E94F1
:1016A000121988E20E94B21788E20E94AA1880E00C
:1016B000DF91CF911F910F91FF900895CF93282F25
:1016C00030E0F901E55CF44FC491F901E554F44FC1
:1016D0002491222359F081EE0E94B2178C2F0E9490
:1016E000B2178C2F0E94AA1881EE04C08C2F0E9482
:1016F000B2178C2FCF910C94AA180F931F93CF93EE
:10170000DF93EC01062FFE018491882359F19E019D
:101710002F5F3F4F813041F4E901F9011491812F8E
:101720000E94B217812F0DC0823031F4E901F90116
:1017300084910E94B2170AC0833031F4E901F901A3
:1017400084910E94AA1802C00E945E0B2196802FED
:101750008823C9F2EFE9FFE03197F1F700C00000FC
:101760008150F6CFDF91CF911F910F91089560E0E6
:101770000C947D0B0C94120FCF92DF92EF92FF929C
:10178000863030F4811105C0909180009F7D04C0A7
:1017900085E090918000906290938000282F30E047
:1017A000AFEFBFEF0E941D3325E030E040E050E096
:1017B0000E94F532C9012C3764E1360728F469E04C
:1017C00070E00E94CD3229C0DA01C9018A50974DDC
:1017D000AF4FBF4F6627782F892F9A2F25EF38E21A
:1017E00041E050E00E94F53269017A01CA01B90175
:1017F0000E94BD329B01AC01C701B6010E94BD32FF
:10180000BB27A92F982F872F009721E0A207B105AA
:1018100011F0BC0102C06FEF7FEF70938B006093FB
:101820008A00FF90EF90DF90CF900895269A2E982F
:1018300082E28093800089E1809381008FEF9FEFA7
:1018400090938700809386000C94DB270E94160CEF
:101850000C94100F0C9482080C942A0C9FE0799F32
:10186000F00111249BE4899FE00DF11D1124E60F86
:10187000F11DEE0FFF1FE552FE4F859194910895E3
:10188000880F991F83539E4FFC0185919491089571
:10189000CF93DF930E942E0C0E94240EEC01811541
:1018A00021E5920708F043C0811530E5930708F061
:1018B00021C1883E910508F5803E910508F0C0C120
:1018C000883A910578F4853A910508F09EC08130F8
:1018D000910509F4B5C108F46CC18430910508F094
:1018E000AFC167C18D3B910508F49AC0803C91055A
:1018F00008F45FC1805C9109ECC0C11580E3D80792
:1019000080F4C11520E2D20708F0E1C0C03FD10544
:1019100008F44FC1CF3FD10511F008F091C1D06557
:101920008FC1C11530E4D30708F0E1C0D6C0C1159E
:1019300089E5D80740F5C11528E5D20708F025C18B
:10194000C11534E5D30778F4C11583E5D80708F04D
:1019500002C1C11522E5D20708F0E8C0DC2FCC2770
:10196000C16FD06A6DC1C11535E5D30708F408C150
:10197000C11586E5D80708F01CC1CF71DD27DC2F23
:10198000CC27D0625DC1CB3B2CE5D20709F408C15E
:10199000D8F4C93B8CE5D80709F4FCC008F0FDC0B9
:1019A000C1153AE5D30708F004C18C2F8F70806E03
:1019B00090E0906A34E0D695C7953A95E1F7CF70FC
:1019C0009C013C2BE9013CC1CE3B8CE5D80709F4D6
:1019D000EDC060F4CC3B3CE5D30709F4E4C0CD3B5B
:1019E000DC4509F0E6C0C0E0D2ED2AC1CE01905638
:1019F0008115904208F0DDC08D2F8F710E94A00EDE
:101A0000DD27D0628F71D82B1BC1853A910509F46F
:101A1000D3C0863A910509F4D2C0C3E8D0E410C11E
:101A2000883A910509F4CEC0893A910509F4CDC0F0
:101A30008A3A910509F4CCC08B3A910509F4CBC0E0
:101A40008C3A910509F4CAC08B3B910509F4C9C0D1
:101A50008C3B910509F4C8C08D3A910509F4C7C0C3
:101A6000803B910509F4C6C08E3A910509F4C5C0C2
:101A70008F3A910509F4C4C0813B910509F4C3C0B4
:101A8000823B910509F4C2C0833B910509F4C1C0B2
:101A9000843B910509F4C0C0853B910509F4BFC0A2
:101AA000863B910509F4BEC0873B910509F4BDC092
:101AB000883B910509F4BCC0893B910509F4BBC082
:101AC0008A3B910509F0BAC0CAE2D6E4B9C0CE019A
:101AD0009F700E94400CEC01B3C0CE019927D3FF48
:101AE00003C0EC01D86CACC0EC01D06CA9C0DF70B5
:101AF000D06AA6C0282F237081E090E002C0880F32
:101B0000991F2A95E2F79C689E01E4E03695279597
:101B1000EA95E1F72370922BCF70C695C69530E217
:101B2000C39FE0011124C82BD92B8AC08C2F869526
:101B3000869520E2829FC00111249E0123703327E5
:101B4000C1E0D0E002C0CC0FDD1F2A95E2F7C82B20
:101B5000D92BDC6875C08C2F8695869530E2839FE3
:101B6000C00111249E0123703327C1E0D0E002C0E0
:101B7000CC0FDD1F2A95E2F7C82BD92BDA6860C09D
:101B8000DC2FCC27C46FD06A5BC0DC2FCC27C06FA2
:101B9000D06A56C0C0E0D4ED53C0C0E0D5ED50C00F
:101BA000C0E0D1ED4DC0C0E0D0ED4AC0C0E0D3ED03
:101BB00047C0C0E0D0E044C0C1E8D0E441C0C2E8C2
:101BC000D0E43EC0C2EED4E43BC0C9EED4E438C099
:101BD000CAEED4E435C0C5EBD4E432C0C6EBD4E4DD
:101BE0002FC0C3EBD4E42CC0C4EBD4E429C0C7EBB2
:101BF000D4E426C0CCECD4E423C0CDECD4E420C0A3
:101C0000C3E8D5E41DC0CAE8D5E41AC0C2E9D5E4EA
:101C100017C0C4E9D5E414C0C1E2D6E411C0C3E2E0
:101C2000D6E40EC0C4E2D6E40BC0C5E2D6E408C0D8
:101C3000C6E2D6E405C0C7E2D6E402C0C0E0D4E400
:101C4000CE01DF91CF9108958238910549F1B0F42A
:101C50008133910509F459C048F48932910509F49A
:101C60004FC08A32910509F455C008958533910516
:101C700009F441C08933910599F00895833E910597
:101C800031F138F4803E910591F0823E9105A9F042
:101C90000895863E910501F1873E910539F1089539
:101CA0002091A50220FD3BC021FD39C008958091FF
:101CB000A50280FF34C089E341C08091A50282FF64
:101CC00032C08091A50284FF2CC080E037C0809193
:101CD000A50282FD28C0F5CF8091A50283FF25C013
:101CE0008091A50284FDF1CF87EE28C08091A502E6
:101CF00083FD1BC0F5CF8091A50285FF18C019C0D8
:101D00008091A50285FF15C012C08091A50286FFB3
:101D100012C013C08091A50286FF0FC00CC080EED8
:101D20000DC083EE0BC082EE09C086EE07C085E3CE
:101D300005C089E203C081E301C08AE290E0089512
:101D40009091A50292FF0DC0282F2871283019F418
:101D5000877F846006C0282F2471243011F48B7F84
:101D6000886093FF0DC0282F2871283119F4877ED1
:101D7000846106C0282F2471243111F48B7E886180
:101D800094FD877E08950895CF93DF93EC01FB01C6
:101D90008281811102C081E040C080915401811193
:101DA00025C0C631DC45B9F70E94C30E81E080939F
:101DB00054010E94DB2390935301809352011092AF
:101DC0004701109249011092480110924B01109264
:101DD0004A0110924D0110924C0110924F01109245
:101DE0004E01109251011092500116C08091520183
:101DF000909153010E94E7238C32914060F68091CC
:101E00004701E82FF0E0EE0FFF1FE85BFE4FD183A4
:101E1000C0838F5F8093470180E0DF91CF91089569
:101E20000C94E6070C94E70785B7806885BF85B7F3
:101E3000806885BFA4E2B1E021E030E08D91E82F19
:101E4000E295EF70F0E041A18F70B90102C0660F1A
:101E5000771F8A95E2F7CB01962F9095492341A3EE
:101E600092A1982B92A371E0A932B70739F7A5E1A7
:101E7000B1E021E030E08D91E82FE295EF70F0E0E5
:101E800041A18F70B90102C0660F771F8A95E2F7F2
:101E9000CB01962F9095492341A392A1982B92A311
:101EA00071E0A432B70739F7EFE5F1E0A5E5B1E05D
:101EB000119211921D921D9281E0E936F807C1F747
:101EC0000C94260C4F925F927F928F929F92AF92CA
:101ED000BF92CF92DF92EF92FF920F931F93CF9317
:101EE000DF9304E211E0C5E5D1E0EE24E394F12CA8
:101EF00099249394BE01A880B98019821882D801D0
:101F00002D918D01E22FE295EF70F0E081A12F700D
:101F1000A70102C0440F551F2A95E2F79A01842BAE
:101F200081A382A1842E8094882182A350EA5A95AD
:101F3000F1F745E1442E41E0542E80E090E0D201DB
:101F40004D912D01C42EC2943FE0C322D12CD60165
:101F500090967C90C880D9804F70D70102C0AA0F9C
:101F6000BB1F4A95E2F77A2241F4A701082E02C06E
:101F7000440F551F0A94E2F702C040E050E04C299C
:101F80005D295983488301968F309105C1F681A15F
:101F9000882181A382A1822B82A32296FB018081CA
:101FA0009181A816B90641F0909269010E94DB2345
:101FB00090936B0180936A01F1E009321F0709F0E9
:101FC00099CF809169018823B1F080916A01909145
:101FD0006B010E94E723069770F0E5E5F1E0AFE5BD
:101FE000B1E0819191918D939D9341E0EF35F4079C
:101FF000C1F7109269010E94BA0B81E0DF91CF9185
:102000001F910F91FF90EF90DF90CF90BF90AF9016
:102010009F908F907F905F904F900895E82FF0E011
:10202000EE0FFF1FE15AFE4F8081918108950895C0
:10203000DF92EF92FF920F931F93CF93DF93493C70
:1020400008F048EC662309F44AC0C42FD0E0AFEF93
:10205000B0E0A61BB109BE01A69FE001A79FD00D6D
:10206000B69FD00D1124FD2FDD2E7B01ED1AF10856
:102070000CE310E0B8010E94CD32EB01BC01E69EFA
:10208000C001E79E900DF69E900D1124B8010E94AC
:10209000CD32C230D105B1F040F4209779F02197CC
:1020A00009F58F2FD42E461B20C0C430D10599F0DE
:1020B00068F02597B9F4842F861B17C08F2FD62E72
:1020C000DF0E13C0862F8F0FD42E03C0D42ED61A46
:1020D000842F4F2F0AC0842F462F4F0F06C0842F06
:1020E000D42E03C080E0D12C40E0E42FF0E0E95A88
:1020F000F34F4491ED2DF0E0E95AF34F9491E82F1E
:10210000F0E0E95AF34FE491D90111964C931197FD
:102110009C931296EC93DF91CF911F910F91FF90BA
:10212000EF90DF90089588E090E00C943F33AB018E
:10213000BC0188E090E00C945D33EEE5F2E083E0D2
:10214000808310925F028FEF8093600288EC80930F
:1021500061021092620260817181828193810C948C
:10216000971060915E0260FF06C066956F7370E025
:1021700080E090E0089560E070E0CB0108958091E8
:10218000620290E001968430910514F083E090E0C3
:102190008093620260915E0270915F0280916002A2
:1021A000909161020C9497108091620290E00197E7
:1021B00097FF02C080E090E08430910514F083E046
:1021C00090E08093620260915E0270915F02809164
:1021D0006002909161020C94971080915E0280FFE2
:1021E00006C064E170E083E692E00C945B16E5E6DD
:1021F000F2E0DF0111971C9211971C921082339626
:1022000082E0E13AF807A9F7ECCF90915E0290FFE7
:102210000FC0E5E6F2E0DF0111978C9311976C9304
:102220004083339692E0E13AF907A9F70C94ED1058
:102230000895CF93DF9300D01F92CDB7DEB72091E2
:102240005E0220FF0AC09E012F5F3F4F0E941810C0
:102250004B8169818A810E9405110F900F900F9028
:10226000DF91CF9108955F926F927F928F929F92AC
:10227000AF92BF92CF92DF92EF92FF920F931F9394
:10228000CF93DF9300D01F92CDB7DEB78C01662EBF
:10229000742E522E80915E0280FF89C0982F9E7707
:1022A000923061F49E012F5F3F4FC8010E941810C9
:1022B0004B8169818A810E94051159C0E82FE695FA
:1022C000EF739EE39E0F9F73943018F47090610239
:1022D0004EC09AE39E0F9F73993068F4881F882739
:1022E000881F90915F02292F220F022F082B97FB46
:1022F000112710F93CC087E28E0F8F738A30B8F532
:10230000F0E07997E0FF02C02FEF01C021E0EE7FFF
:10231000E35CF34F8591949164E170E00E94CD32CB
:1023200026035001279FB00C1124680188E9C81AC0
:102330008EEFD80A83E6E82E82E0F82E98E6892E02
:1023400099249394C601B4010E94CD329701472D80
:10235000662D0E941810CA0CDB1C83E0E80EF11CED
:102360008FE9E81682E0F80669F70E94ED10809187
:102370005E0200FB87F980935E02902F9695809114
:102380005F028078892B10FB87F980935F0260924F
:10239000600270926102552051F060915E0270916E
:1023A0005F0280916002909161020E9497100F90ED
:1023B0000F900F90DF91CF911F910F91FF90EF90B1
:1023C000DF90CF90BF90AF909F908F907F906F9055
:1023D0005F90089521E00C94331120915E02221F3A
:1023E0002227221F30915F02432F440F842F822B1C
:1023F00037FB992790F9089668E671E00E94E13270
:1024000040916102609160020C94EA1120915E0299
:10241000221F2227221F30915F02432F440F842F57
:10242000822B37FB992790F9883091051CF4805A4C
:102430009E4F01C0089768E671E00E94E13240912A
:102440006102609160020C94EA1160916002862F33
:1024500090E0883F910514F4685F01C06FEF8091B0
:102460005E02881F8827881F90915F02292F220F04
:1024700097FB992790F940916102822B0C94EA1105
:1024800060916002862F90E0089714F0685001C0B8
:1024900060E080915E02881F8827881F90915F020C
:1024A000292F220F97FB992790F940916102822BE7
:1024B0000C94EA1140916102842F90E0813C9105D7
:1024C00014F4485F01C048EC80915E02881F8827A1
:1024D000881F90915F02292F220F97FB992790F96F
:1024E00060916002822B0C94EA1140916102842F6A
:1024F00090E0089714F0485001C040E080915E02DF
:10250000881F8827881F90915F02292F220F97FB31
:10251000992790F960916002822B0C94EA1120E0D7
:102520000C94331190915E0290FF48C09178811114
:1025300002C0926003C0843220F0966490935E02E1
:1025400005C08F73880F892B80935E02662351F03C
:1025500060915E0270915F028091600290916102D1
:102560000E94971080915E02382F3E77323019F426
:102570001092850112C0982F96959F732EE3290F14
:102580002F73273110F0363421F491E090938501B8
:1025900004C0995D9F739A3058F3881F8827881F5D
:1025A00090915F02292F220F97FB992790F9409174
:1025B000610260916002822B0C948F12089561E099
:1025C0000C94921280915E0286958F738F5F843295
:1025D00008F081E00C94DF1280915E0286958F7383
:1025E000815009F483E20C94DF12EEE5F2E0808181
:1025F0008160808386958F730C94DF1260E00C9469
:1026000092128091300281608093300281E0809349
:1026100086010E949C22811104C00E9476220E94A1
:102620009D100E94931060935E0270935F028093EE
:102630006002909361026E7761F40E949D100E9487
:10264000931060935E0270935F0280936002909398
:10265000610281E08093850180915E0280FF04C069
:1026600086958F730C94FE120895EEE5F2E080815A
:102670008E7F808360817181828193810E94971017
:10268000109285012FEF80E792E02150804090402A
:10269000E1F700C000000C94ED1080915E0280FD17
:1026A0000C9435130C94F512CF93C82F80918301AD
:1026B000909184010E94E723EC2FF0E0ED5AF34F54
:1026C000E491F0E08E179F0708F442C00E94DB23DC
:1026D00090938401809383016091820170E080E097
:1026E00090E00E94DB3020E030E04FE753E40E94AE
:1026F00014302BED3FE049E450E40E94FC310E948D
:102700005F320E9481302BE43AE34EE25FE30E94A5
:10271000AF2F20EF3BEF48ED52E40E94FC310E94C6
:10272000AD30462F80915E02881F8827881F9091C8
:102730005F02292F220F97FB992790F96091600281
:10274000822B0E941911809182018F5F80938201F8
:10275000CF910895CF93C82F8091800190918101EE
:102760000E94E723EC2FF0E0E05BF34FE491F0E010
:102770008E179F07E8F00E94DB23909381018093DE
:102780008001409161026091600280917E01909190
:102790007F010E94191180917E0190917F01019625
:1027A00068E671E00E94CD3290937F0180937E01B4
:1027B000CF910895DF92EF92FF920F931F93CF93E3
:1027C000DF93D82E80917C0190917D010E94E723B8
:1027D000ED2DE695F0E0E35BF34FE491F0E08E172A
:1027E0009F07E8F10E94DB2390937D0180937C0199
:1027F00003E612E0C0E0D0E068E6E62EFF24F394A2
:1028000080917A0190917B018C0F9D1FB7010E94EE
:10281000CD32980140916102609160020E941810CF
:1028200062960D5F1F4FC83681E0D80749F70E94B6
:10283000ED1020917A0130917B01D0FE0AC0C901D0
:102840000196BE010E94CD3290937B0180937A0164
:1028500006C02150310930937B0120937A01DF912A
:10286000CF911F910F91FF90EF90DF900895AF925D
:10287000BF92CF92DF92EF92FF920F931F93CF936D
:10288000DF93C82F80FD03C0BB24B39402C0BB24D8
:10289000BA9480917801909179010E94E723C695BE
:1028A000EC2FF0E0E65BF34FE491F0E08E179F072A
:1028B00008F466C00E94DB2390937901809378012D
:1028C000F3E6EF2EF2E0FF2E05E612E0C0E0D0E0E6
:1028D000F80131971082F7011082F8011082E4E0CC
:1028E000CE2ED12CA12C809177018A0D87FD8C5E94
:1028F000992787FD9095C817D907E9F4809161025F
:102900008C9DA0018D9D500D112455954795559591
:10291000479580915E02881F8827881F90915F02EB
:10292000592F550F97FB992790F9970160916002F5
:10293000852B0E941810AB0CF1E0CF1AD108C114FE
:10294000D10489F6219683E0E80EF11C0D5F1F4F3C
:10295000C431D10509F0BCCF0E94ED108091770100
:1029600091E0B91206C0811102C083E107C0815015
:1029700005C090E00196BE010E94E132809377018C
:10298000DF91CF911F910F91FF90EF90DF90CF904B
:10299000BF90AF9008950F931F93CF93DF93C82FED
:1029A00080917501909176010E94E723EC2FF0E071
:1029B000E95BF34FE491F0E08E179F0708F467C0DE
:1029C0000E94DB239093760180937501E5E6F2E0A7
:1029D000DF0111971C9211971C921082339682E0AE
:1029E000E13AF807A9F7C0E0D0E004E110E0CE0139
:1029F000B8010E94E13220917401332727FD309500
:102A0000FC01EE0FFF1FC217D3070CF1209101014B
:102A1000332727FD30952C173D07CCF09F01280F59
:102A2000391F2D593D4F80915E02881F8827881FCE
:102A300090915F02592F550F97FB992790F940917C
:102A4000610260916002852B0E94181007C0E80F98
:102A5000F91FED59FD4F1182108212822196C43167
:102A6000D10529F60E94ED1020910001809174019A
:102A7000820F8093740190910101920F9093010154
:102A8000191614F483311CF0219520930001DF9175
:102A9000CF911F910F910895EF92FF920F931F9383
:102AA000CF93DF9380917201909173010E94E7238D
:102AB000883E9340C8F10E94DB239093730180937A
:102AC0007201C0917001D09171012196C170DD2712
:102AD000D0937101C093700103E612E0F12CB8E7C6
:102AE000EB2E8F2D8695FE01E80FF11DCF01817031
:102AF000992798014091610260916002FC01EE9E6D
:102B0000C001EF9E900D11240E941810F3940D5FE8
:102B10001F4FF4E1FF12E5CFDF91CF911F910F918D
:102B2000FF90EF900C94ED10DF91CF911F910F91DA
:102B3000FF90EF900895CF93DF9300D01F92CDB711
:102B4000DEB780916E0190916F010E94E723EBE365
:102B5000FCE02591349182179307C0F180916D01BB
:102B600081110CC09E012F5F3F4F48EC6FEF80E05A
:102B700090E00E9418108A8180936D010E94DB23EF
:102B800090936F0180936E0180916C01813051F0C0
:102B900028F0823061F440916D010AC080916D018E
:102BA00040E007C060916D0140E080E003C040E07C
:102BB00080E060E00E94051180916C0190E0019638
:102BC00063E070E00E94E13280936C010F900F90FF
:102BD0000F90DF91CF910895809185018823B9F1FD
:102BE00020915E02822F86958F739EE3980F9F73CC
:102BF000943018F482500C9454139AE3980F9F73F6
:102C0000933018F486500C94AA1397E3980F9F738F
:102C1000963018F489500C94DA1391E3980F9F734F
:102C2000963018F48F500C9437149BE2980F9F73D2
:102C3000933018F485510C94CB14822F8E77803307
:102C400011F40C944C15863411F40C949B150895D2
:102C50003EB1242F209523233EB1342B4FB7F89457
:102C6000FC01680F791FE617F70789F0819198E05A
:102C70003EB9000000C087FF2EB9880F000000C0D9
:102C800000C000C02EB900C09A9591F7ECCF4FBF9D
:102C900008952DB1242B2DB99B01220F331F260F30
:102CA000371FB9010E94281687EC90E00197F1F7D1
:102CB00000C00000089544E00C94491690938C01E4
:102CC00080938B010895E0918B01F0918C013097F6
:102CD00021F00190F081E02D099480E00895E091C9
:102CE0008B01F0918C01309721F00280F381E02D6F
:102CF00009940895E0918B01F0918C01309721F0B7
:102D00000480F581E02D0994089520918901309186
:102D10008A018217930771F090938A018093890149
:102D2000E0918B01F0918C01309721F00680F781C2
:102D3000E02D099408952091870130918801821730
:102D4000930771F09093880180938701E0918B0144
:102D5000F0918C01309721F00084F185E02D0994E9
:102D6000089508950C94B11681E008950E94D2232D
:102D70000E94140F0E94A6240E94DB270C940113CA
:102D80005F926F927F928F929F92AF92BF92CF92FB
:102D9000DF92EF92FF920F931F93CF93DF93CDB704
:102DA000DEB72A970FB6F894DEBF0FBECDBF0E94E4
:102DB000620F0E94B416811111C08FEF89838A833C
:102DC0001B820E94DB238160782F9D838C83498145
:102DD0005A816B818D810E947E1757C09EE8C92E53
:102DE00091E0D92E00E010E0AA24A394B12C502E3B
:102DF000802F0E940E103C01F601E190F1906F01CE
:102E0000E826F926E114F10431F40F5F1F4F053075
:102E1000110569F7D2CF8091300281FD0E94171011
:102E200020E030E04501022E02C0880C991C0A9473
:102E3000E2F7C4018E219F21892B09F12E835F8245
:102E40006820792081E0672809F480E088870E9463
:102E5000DB238160782F9A8789874E815F8168851F
:102E60008A850E947E17F801EE0FFF1FE257FE4F82
:102E700080819181882599259183808306C02F5F69
:102E80003F4F2F30310571F6C0CF0E944627109179
:102E90008D010E9463161817D9F00E946316809363
:102EA0008D012A960FB6F894DEBF0FBECDBFDF911D
:102EB000CF911F910F91FF90EF90DF90CF90BF9037
:102EC000AF909F908F907F906F905F900C942C0CA0
:102ED0002A960FB6F894DEBF0FBECDBFDF91CF911B
:102EE0001F910F91FF90EF90DF90CF90BF90AF9028
:102EF0009F908F907F906F905F900895CF93DF9316
:102F0000CDB7DEB72B970FB6F894DEBF0FBECDBF9F
:102F10004F83588769877A878B87DE01119686E011
:102F2000FD0111928A95E9F785E0FE01379601903F
:102F30000D928A95E1F749815A816B817C818D815F
:102F40009E810E94EC1E2B960FB6F894DEBF0FBE3A
:102F5000CDBFDF91CF910895FC01808191810E94C6
:102F6000A8210895882309F4F4C08238C1F40E948E
:102F7000631681FDEEC069E3809102019091030127
:102F80000E9432230E9407222FEF81EE94E021500D
:102F900080409040E1F700C0000069E319C0833829
:102FA000F9F40E94631680FDD4C063E580910201AC
:102FB000909103010E9432230E9407222FEF81EE9D
:102FC00094E0215080409040E1F700C0000063E5AC
:102FD00080910201909103010E943D230C940722ED
:102FE0008438C1F40E94631682FDB3C067E4809107
:102FF0000201909103010E9432230E9407222FEFC9
:1030000081EE94E0215080409040E1F700C0000044
:1030100067E4DECF9CEF980F913A40F4682F8091DF
:103020000201909103010E943223D8CF90E2980FC1
:10303000983050F4877091E001C0990F8A95EAF7B3
:10304000892F0E943D22CACF9BE5980F933070F4E0
:10305000853A29F0863A31F482E890E005C081E8AB
:1030600090E002C083E890E00C94851698E5980FF4
:10307000953108F06EC0883A61F1893A69F18A3A6F
:1030800071F18B3A79F18C3A81F18B3B89F18C3B70
:1030900091F18D3A99F1803BA1F18E3AA9F18F3AE5
:1030A000B1F1813BB9F1823BC1F1833BC9F1843B72
:1030B000D1F1853BD9F1863BE1F1873BE9F1883BD2
:1030C000F1F1893BF9F18A3B09F03FC08AE292E0D5
:1030D0003EC082EE90E03BC089EE90E038C08AEEC0
:1030E00090E035C085EB90E032C086EB90E02FC0D9
:1030F00083EB90E02CC084EB90E029C087EB90E05C
:1031000026C08CEC90E023C08DEC90E020C083E8DA
:1031100091E01DC08AE891E01AC082E991E017C0F1
:1031200084E991E014C081E292E011C083E292E070
:103130000EC084E292E00BC085E292E008C086E215
:1031400092E005C087E292E002C080E090E00C943B
:103150009B160895882309F45DC0823879F40E9493
:10316000631681FF57C069E38091020190910301CA
:103170000E9432230E94072269E310C08338B1F411
:103180000E94631680FF46C063E580910201909122
:1031900003010E9432230E94072263E5809102010D
:1031A000909103010E943D230C940722843879F406
:1031B0000E94631682FF2EC067E480910201909105
:1031C00003010E9432230E94072267E4E7CF9CEFAD
:1031D000980F913A10F4682FE1CF90E2980F983051
:1031E00050F4877091E001C0990F8A95EAF7892F12
:1031F0000E944322D9CF9BE5980F933020F480E0C2
:1032000090E00C948516885A853120F480E090E097
:103210000C949B160895882321F00E943D220C9463
:1032200007220895882321F00E9443220C9407224C
:1032300008958F929F92BF92CF92DF92EF92FF926A
:103240000F931F93CF93DF9300D0CDB7DEB74C0120
:10325000472FFC01C580C2949FE0C922D280DD20A7
:1032600031F079836A830E945A226A8149814983B5
:103270006A830E94002249816A81882389F0DD20C7
:1032800079F080E2860F883058F082E00E94E921D0
:103290000E940022BB24B394B82649816A8101C0F0
:1032A000B12CE42EE2948FE0E822F12CF701E159F1
:1032B000FF4F0C941733842F807F142F1F708823A7
:1032C00011F01295107FDD20C1F0112309F4E1C146
:1032D00080E2860F883010F0611105C0812F6A836B
:1032E0000E943D2204C0812F6A830E944D226A8180
:1032F0006A830E9407226A81CCC1862F6A830E945A
:10330000AA186A81112309F40BC280E2860F883063
:1033100010F0611104C0812F0E94432203C0812F4D
:103320000E9453220E940722FBC1842F807F142F0A
:103330001F70803211F01295107F662319F06130F2
:10334000D9F026C0DD2079F0CC2049F0F1E0CF1291
:1033500006C00E947322812B0E946D22E1C10E944F
:103360007322812B4AC1CC2021F021E0C21609F43E
:10337000D7C10E94702246C1DD2029F085E08C155E
:1033800008F4CEC139C194E09C1508F4C9C13AC112
:10339000DD2051F0CC2009F42FC1F401858180FF9C
:1033A00078C18F70858328C1CC2009F42BC182C1DC
:1033B000242F26952695237030E02115310521F024
:1033C0002130310561F0ACC1DD2021F0862F942F32
:1033D000937002C080E090E00E948516B1C1DD20AC
:1033E00021F0862F942F937002C080E090E00E941D
:1033F0009B16A6C1DD20F9F0653F51F0663F71F0E4
:10340000643FA9F480919F029091A00281600BC05B
:1034100080919F029091A002826005C080919F02DE
:103420009091A00284609093A00280939F02862FC7
:103430000E944E2622C0653F51F0663F91F0643FE6
:10344000C9F480919F029091A0028E7F05C0809167
:103450009F029091A0028D7F9093A00280939F0283
:1034600009C020919F023091A0022B7F3093A002CF
:1034700020939F02862F0E94B6260E943B2760C1A0
:10348000842F837009F04EC0D11056C1262F22958B
:1034900026952770220F220F862F8F70C82ED12CD1
:1034A000E12CF12C022E04C0CC0CDD1CEE1CFF1C08
:1034B0000A94D2F764FF10C06FE070E080E090E003
:1034C00004C0660F771F881F991F2A95D2F7609551
:1034D00070958095909503C060E070E0CB01242F3B
:1034E00026952695237030E02230310569F023308F
:1034F000310589F06C297D298E299F2921303105DC
:1035000071F00E943B2018C16C297D298E299F29CA
:103510000E944D2011C10E943B20C701B6010E94AC
:1035200029200AC1DD2019F0842F817001C0869501
:10353000882309F401C1262F229526952770220F92
:10354000220F862F8F70C82ED12CE12CF12C022E49
:1035500004C0CC0CDD1CEE1CFF1C0A94D2F764FFE7
:1035600010C06FE070E080E090E004C0660F771F4D
:10357000881F991F2A95D2F7609570958095909530
:1035800003C060E070E0CB01242F269526952370C0
:1035900030E02230310569F02330310589F06C29A3
:1035A0007D298E299F292130310571F00E94E92063
:1035B000C3C06C297D298E299F290E94FB20BCC095
:1035C0000E94E920C701B6010E94D720B5C0062F8E
:1035D00010E0F801E05EF109E531F10508F055C0B1
:1035E000E158FF4F0C941733162F1F70842F8F71E3
:1035F000DD2031F00E948220812F0E940B1990C0A3
:103600000E949D20812F0E9412198AC0DD2049F05E
:10361000F4E0FC1508F484C0842F8F710E94BC2054
:103620007FC025E02C1508F47BC0F6CFDD2039F0F3
:10363000842F8F710E94822073C0DD20C9F3842FF4
:103640008F710E949D206CC0DD2029F0842F8F7126
:103650000E94732065C00E946E2062C0DD2051F080
:10366000142F1F71812F0E94822063E0812F0E94FE
:10367000E02156C081E00E94E92181E08C1508F02C
:103680004FC082E00E94E9214BC0DD2031F0CC2008
:1036900079F2862F0E94B21743C0CC2081F26933A1
:1036A00049F49FEFE7EEF3E09150E040F040E1F79E
:1036B00000C00000862F0E94AA1832C04F70C401BB
:1036C0000E94BF070E94991F3BC0D11039C0942FA0
:1036D0009F70892F90E08230910599F03CF400971B
:1036E00069F00197E9F40E9414282AC084309105FA
:1036F00071F054F00597A1F480E00AC00E94F82709
:103700001FC00E9430281CC00E944A2819C085E0B2
:103710000E946F2815C04F70C4010E942B0810C072
:1037200028E0E216F10441F05CF09AE0E91AF108B1
:10373000E2E0EE16F10420F40E9463160E942C0CC5
:10374000BB20F1F00E94DC2180FD1AC0F40112823E
:103750000E94D6210E948220C4010E94CE1B0E949A
:10376000D6210F900F90DF91CF911F910F91FF9075
:10377000EF90DF90CF90BF909F908F900C949D2002
:103780000F900F90DF91CF911F910F91FF90EF90CD
:10379000DF90CF90BF909F908F9008950F931F93CD
:1037A000CF93DF93EC01288139818B819C81892B18
:1037B00031F03F3F11F080E003C02F3FE1F781E09F
:1037C000811113C0CE010E949A08882371F068818C
:1037D00079818A810E94B3218C010E940D210E946F
:1037E0002620B801CE010E941919DF91CF911F91B7
:1037F0000F9108950E945A220E946A22809102012C
:10380000909103010E9448230E9407220E94CF2723
:103810000E943B2780E090E00E94851680E090E0C7
:103820000C949B160E944A220C94FA1B0E94A82119
:10383000E92FE295EF70F0E03297EE30F105B8F441
:10384000EC56FF4F0C941733803F59F018F4803E2C
:1038500070F407C0843F59F404C0803E10F0813FEB
:1038600031F481E0089593FB882780F9089580E082
:103870000895CF93DF9300D000D01F92CDB7DEB76D
:103880000F900F900F900F900F90DF91CF910895B0
:10389000CF93DF9300D000D000D0CDB7DEB726960F
:1038A0000FB6F894DEBF0FBECDBFDF91CF91089564
:1038B0001F93CF93DF93C091990116E080919A01F5
:1038C000C81799F0D0E01C9FF0011D9FF00D112446
:1038D000E556FE4F408151816281738184819581DB
:1038E0000E94481C2196C770E9CFDF91CF911F91AC
:1038F00008954091CB015091CC016091CD01709120
:10390000CE018091CF019091D0010C94481CCF93AF
:103910008091D00182958F7009F05FC08091CD01B8
:10392000882309F45AC020919901A0919A016091CD
:10393000CB017091CC018091CE019091CF0131E00B
:103940006F3F09F030E0B32FC6E02A1709F445C0F5
:10395000009721F07F3F21F44B2F03C041E001C0CD
:1039600040E030E040FD35C0C29FF001C39FF00D44
:103970001124E556FE4F418174132BC0408164131E
:1039800028C04281411125C04381548148175907FD
:1039900010F441505109481B590B483C5105C8F4DB
:1039A0008091D0018F7080618093D00186E0829FEA
:1039B000F001839FF00D1124E056FE4F80818F703F
:1039C000806180838BEC91E00E94CE1BCF910C94A0
:1039D000581C2F5F3F4F2770B8CFCF910895CF92DB
:1039E000DF92EF92FF920F931F93CF93DF93CDB7A8
:1039F000DEB762970FB6F894DEBF0FBECDBF8C0165
:103A000085E0F801DE011D9601900D928A95E1F79F
:103A1000D8014C9111965C91119712966C91129766
:103A20001396ED90FC9014977091CB01E091CC012E
:103A30002091CE013091CF012115310531F0EF3FBA
:103A400031F481E07F3F19F403C081E001C080E0E0
:103A5000B82FB170CB2E80FD6BC1D090CD01DD2091
:103A600009F4F5C0F091D001E216F30638F0C70171
:103A7000821B930B883C910548F09DC020953095A2
:103A80002E0D3F1D283C310508F095C08F2F807FFB
:103A900009F052C0E51314C0741312C0D62E611180
:103AA0000FC0FF70F061F093D0010E94791C8BEC85
:103AB00091E00E94CE1B8091D001F80185837CC1EA
:103AC000EF2831F05F3F31F481E04F3F19F403C03C
:103AD00081E001C080E080FD03C081E0862701C055
:103AE00080E0F82FF170FF2E80FF1CC080919901BB
:103AF00020919A0136E0821709F438C190E0389F8E
:103B0000F001399FF00D1124E556FE4F71815713D6
:103B100006C07081471303C07281671303C001960A
:103B20008770E9CFD62E662309F446C18091D00173
:103B300081608093D00155C0E51308C0741306C09E
:103B4000611104C0D8011596FC93AEC04D875E8705
:103B50008D859E856A8B0E94161C6A89882329F1AF
:103B6000D62E662311F12091D001822F82958F707D
:103B700090E002970CF462C08091CB019091CC014F
:103B800098878F831986FB86EA862C87CE01079655
:103B900053C0E51741F14D875E878D859E856A8B01
:103BA0000E94161C6A89811130C0C8010E94CE1B78
:103BB000DD24D39401C18F2F807F59F77E2DF98AA0
:103BC000E88A89890E94391C8BEC91E00E94CE1B07
:103BD000EBECF1E086E0DF011D928A95E9F70E94A7
:103BE000791CD12CE9C07413D6CF6111D4CFD80180
:103BF0001596FC93C8010E94CE1BEBECF1E086E029
:103C0000DF011D928A95E9F7D7C0D62E662369F2A7
:103C10002091D001822F82958F7090E0029774F0EE
:103C20008091CB019091CC019A8389831B82FD8284
:103C3000EC822E83CE0101960E94CE1B86E0F80115
:103C4000ABECB1E001900D928A95E1F78AC0E216E3
:103C5000F30628F0C701821B930B9C0104C020953A
:103C600030952E0D3F1D283C310508F053C0D62E4F
:103C7000662309F49ACFE5132CC074132AC08091EF
:103C8000D00180FD1DC0982F92959F70C9F0D8017A
:103C900015968C9315979F3039F09F5F9295907F82
:103CA0008F70892B15968C93C8010E94CE1B86E0DD
:103CB000F801ABECB1E001900D928A95E1F753C0A9
:103CC00086E0F801ABECB1E001900D928A95E1F746
:103CD00073C04D875E878D859E850E94161C882344
:103CE00081F096E0F801ABECB1E001900D929A956D
:103CF000E1F78A8B0E94871C0E94791C8A89D82E42
:103D00005BC08091D00181608093D001C8010E9486
:103D1000CE1B52C07E2DF98AE88A89890E94391CFF
:103D2000EBECF1E086E0DF011D928A95E9F71BC01C
:103D3000662309F43ACF4D875E878D859E850E9464
:103D4000161CD82E882309F430CF86E0F801ABEC9E
:103D5000B1E001900D928A95E1F78BEC91E00E9421
:103D6000AC170E94871C0E94791C26C04D875E8775
:103D70008D859E850E94A821292F22952F7030E0E5
:103D8000223031052CF49F7041F0811106C00CC027
:103D9000243031052CF49F7049F4805E883020F087
:103DA000C8010E94CE1BCF2CDC2C06C0D801159672
:103DB0009C91907F91F7F8CF8D2D62960FB6F89475
:103DC000DEBF0FBECDBFDF91CF911F910F91FF904E
:103DD000EF90DF90CF9008951F93CF93DF93CDB7EF
:103DE000DEB72C970FB6F894DEBF0FBECDBF4F8362
:103DF000588769877A878B879C87CE0107960E94B0
:103E0000EF1C8823C1F02F8138858A859B85892BFB
:103E100031F03F3F11F080E003C02F3FE1F781E038
:103E2000811147C04F81588569857A858B859C852E
:103E30000E94481C3EC086E0FE013796DE011196C6
:103E400001900D928A95E1F7FF81E8854A855B85AF
:103E50004115510531F0EF3F31F481E0FF3F19F496
:103E600003C081E001C080E080FD23C020919A0161
:103E700030E0C9010196877099276091990170E03F
:103E800086179707F1F1F983EA835D834C8396E007
:103E9000929FD001939FB00D1124A556BE4FFE01F5
:103EA000319601900D929A95E1F780939A010E94C4
:103EB000581C16E08091990190919A01891779F127
:103EC000189FC001112485569E4F0E94EF1C882325
:103ED00031F1E09199011E9FF0011124E556FE4F4A
:103EE0004081518162817381848195810E94481C47
:103EF0008091990190E001968770992780939901AC
:103F0000D9CF0E94121C10929A0110929901EBECE9
:103F1000F1E086E0DF011D928A95E9F7CACF2C9681
:103F20000FB6F894DEBF0FBECDBFDF91CF911F91CA
:103F30000895EF92FF920F931F93CF93DF93FC01AD
:103F4000009709F46FC0F12CEE24E394EF01219661
:103F50008491843740F4843008F055C0813081F07A
:103F6000823021F15FC0853709F447C0C0F19CE77A
:103F7000980F903708F056C08F770E94AA1845C056
:103F80008F010E5F1F4FFE01849190E2980F9830D1
:103F900050F48770FE2D01C0FF0F8A95EAF78F2F2E
:103FA0000E945D2215C00E94B21714C08F010E5FDF
:103FB0001F4FFE01849190E2980F983068F487704B
:103FC000FE2D01C0FF0F8A95EAF78F2F0E94632212
:103FD0000E940722E80119C00E94AA18FBCFCF0156
:103FE0000296FE01C491CC2361F0EFE9FFE0319726
:103FF000F1F700C00000C150F6CFCF010296FE01DC
:10400000F490EC0102C00E94B2178F2D882341F07A
:10401000EFE9FFE03197F1F700C000008150F6CFE3
:10402000FE0194CFDF91CF911F910F91FF90EF9000
:10403000089508950E941920609307027093080262
:104040008093090290930A020C94FA1B08950C9431
:104050001A200F931F9300910702109108022091DC
:10406000090230910A02602B712B822B932B1F9136
:104070000F910C941A200F931F9300910702109137
:1040800008022091090230910A02602371238223E1
:1040900093231F910F910C941A200F931F9300915B
:1040A0000702109108022091090230910A0260274C
:1040B0007127822793271F910F910C941A2008953E
:1040C0000C945F200E9460206093030270930402AE
:1040D00080930502909306020C94FA1B60E070E056
:1040E000CB010C94622041E050E060E070E004C03D
:1040F000440F551F661F771F8A95D2F7CB01BA016F
:104100000C94622041E050E060E070E004C0440F95
:10411000551F661F771F8A95D2F7809103029091F1
:104120000402A0910502B0910602482B592B6A2B7C
:104130007B2BCB01BA010C94622041E050E060E09F
:1041400070E004C0440F551F661F771F8A95D2F791
:10415000409550956095709580910302909104026E
:10416000A0910502B0910602482359236A237B23BC
:10417000CB01BA010C94622041E050E060E070E0B5
:1041800004C0440F551F661F771F8A95D2F7809190
:10419000030290910402A0910502B0910602482703
:1041A00059276A277B27CB01BA010C9462200F9311
:1041B0001F93009103021091040220910502309197
:1041C0000602602B712B822B932B1F910F910C9465
:1041D00062200F931F93009103021091040220911B
:1041E00005023091060260237123822393231F91DD
:1041F0000F910C9462200F931F9300910302109172
:10420000040220910502309106026027712782275F
:1042100093271F910F910C94622008952FE0929F95
:10422000800D1124482F4695469546958770B1E03C
:1042300001C0BB0F8A95EAF785E0489FA0011124D1
:104240004F525E4F80E090E070E0FA01E80FF91FF6
:10425000A0819B01082E02C0369527950A94E2F7AB
:104260002170332721952A272B232A272083019683
:104270008530910551F708952FE0929F800D11240C
:10428000682F669566956695982F977085E0689F6C
:10429000B00111246F527E4F40E050E080E0FB01FE
:1042A000E40FF51F208130E0092E02C036952795D6
:1042B0000A94E2F721703327042E01C0220F0A94DA
:1042C000EAF7822B4F5F5F4F4530510541F7089564
:1042D000CF92DF92EF92FF920F931F93CF93DF93D2
:1042E000EC01C0900702D0900802E0900902F09023
:1042F0000A028091030290910402A0910502B091FC
:104300000602C82AD92AEA2AFB2A0FE110E0B701DF
:10431000A601002E04C076956795579547950A9497
:10432000D2F740FD05C00150110988F780E007C0B1
:10433000BE01802F0E94480C0197A9F3802FDF91C6
:10434000CF911F910F91FF90EF90DF90CF90089544
:10435000CF93DF93EC010E946821BE010E94480CBC
:10436000DF91CF9108951F93CF93DF93EB0190914D
:104370009801992321F0CB010E94A82113C0882322
:1043800049F0CB010E946821182F682FCE010E94AE
:104390000E2104C0CB010E943C21182FBE01812FA9
:1043A0000E94480CDF91CF911F91089580910B02DC
:1043B000859585958595089580910B028770089560
:1043C00098E0899F90011124622B60930B020C945A
:1043D000822040910B028095842380930B02982FBA
:1043E000977069F450E0282F332727FD3095421746
:1043F000530729F08595859585950C949D20089502
:1044000090910B02977081E009F480E00895E091AB
:104410000201F091030180912F028083E09102015B
:10442000F0910301808190912E02892B8083E0918D
:104430000201F0910301808190912D02892B8083EC
:1044400090910C02992381F0E0910201F091030117
:104450008081892B808380910201909103010E94C9
:10446000CB22811110920C028091020190910301E4
:104470000C946F1680912F02089590912F02982B23
:1044800090932F020895809590912F0298239093F6
:104490002F02089510922F02089590912E02982BCA
:1044A00090932E020895809590912E0298239093D8
:1044B0002E02089510922E02089590912D02982BAD
:1044C00090932D020895809590912D0298239093BA
:1044D0002D02089510922D02089580930C020895E4
:1044E00010920C02089580910C0208956DEE7EEFFB
:1044F00080E090E00E94693360E082E090E00E94FA
:104500004B3360E083E090E00E944B3360E084E056
:1045100090E00E944B3360E085E090E00E944B33D6
:1045200060E086E090E00E944B3340E050E0BA014A
:1045300088E090E00C945D3380E090E00E94453389
:1045400021E08D3E9E4F09F020E0822F089582E009
:1045500090E00C943733682F82E090E00C944B335A
:1045600083E090E00C943733682F83E090E00C9464
:104570004B3384E090E00C943733682F84E090E074
:104580000C944B3386E090E00C943733682F86E030
:1045900090E00C944B3320E030E040E0FC01E20F6F
:1045A000F31F518151114F5F2F5F3F4F2F31310565
:1045B000A9F7842F089520E030E04FEFFC01E20FCF
:1045C000F31F5281561799F04F3F19F4511101C052
:1045D000422F2F5F3F4F2E31310581F74F3F39F08A
:1045E000FC01E40FF11D47FDFA95628308950895DB
:1045F00020E030E0FC01E20FF31F4281461301C0CE
:1046000012822F5F3F4F2E313105A1F70895262FDB
:104610002695269526952F3170F4FC01E20FF11DA9
:10462000677021E030E0062E01C0220F0A94EAF7FD
:104630008181822B81830895262F269526952695A4
:104640002F3178F4FC01E20FF11D677021E030E0BA
:10465000062E01C0220F0A94EAF7209581812823B3
:104660002183089520911401222329F02091A5028D
:1046700027FD0C9407230C94DB22209114012223A4
:1046800029F02091A50227FD0C941C230C94F822FC
:1046900020E030E0FC01E20FF31F11822F5F3F4F5B
:1046A0002F313105B9F7089508950C945423809162
:1046B000AC02843049F11092310220E488E190E0AC
:1046C0000FB6F894A895809360000FBE2093600009
:1046D00080E00E94BC0B80E00E942C0C0E945523BD
:1046E00083B7817F846083BF83B7816083BF789401
:1046F000889583B78E7F83BF88E10FB6F894809347
:104700006000109260000FBE089508950895CF9341
:104710000E9485230E94620F0E948623C0E08C2F96
:104720000E940E10892B29F4CF5FC530C1F780E0BD
:1047300001C081E0CF91089508950C949C230E94BC
:10474000121C0E94DB270E9463160E942C0C0C9402
:104750009D231F920F920FB60F9211248F939F9358
:10476000AF93BF9380913102811113C08091A10258
:104770009091A202A091A302B091A4024196A11D22
:10478000B11D8093A1029093A202A093A302B093C3
:10479000A402BF91AF919F918F910F900FBE0F9088
:1047A0001F90189582E084BD93E095BD9AEF97BD68
:1047B00080936E0008952FB7F8948091A102909194
:1047C000A202A091A302B091A4022FBF0895CF929C
:1047D000DF92EF92FF920F931F932FB7F8944091BF
:1047E000A1025091A2026091A3027091A4022FBF76
:1047F0006A017B01EE24FF248C0120E030E0C0162A
:10480000D106E206F30610F441505109481B590B3A
:10481000CA011F910F91FF90EF90DF90CF90089504
:1048200078941F920F920FB60F9211248F939F933B
:10483000AF93BF938091A1029091A202A091A30295
:10484000B091A4020196A11DB11D8093A102909385
:10485000A202A093A302B093A402BF91AF919F9133
:104860008F910F900FBE0F901F90189581E080934D
:10487000E00080E28093D8001092C9008FE19EE4AE
:104880000197F1F700C0000087E090EBDC01809316
:10489000B5029093B602A093B702B093B8022CE091
:1048A00088E190E00FB6F894A895809360000FBE61
:1048B00020936000FFCFBF92CF92DF92EF92FF92E2
:1048C0000F931F93CF93DF93B12C01E010E0E82EFC
:1048D000F12C8B2D0E940E106C01C0E0D0E09801ED
:1048E0000C2E02C0220F331F0A94E2F72C213D2127
:1048F000232B29F42196CF30D10589F70AC06C2FDC
:104900007B2D80E00E942E0CE816F90699F781E0D5
:1049100005C0B39485E0B812DCCF80E0DF91CF9181
:104920001F910F91FF90EF90DF90CF90BF9008956F
:10493000CF93C82F8CE20E945B24882321F08C2F18
:10494000CF910C945B2480E0CF910895CF930E9487
:104950009C22811102C00E947622C5E6C15049F016
:104960000E94620F8FE39CE90197F1F700C00000FD
:10497000F5CF89E20E94982481110DC18AE20E943C
:10498000982481110E94762285E00E94982481114A
:104990000E9436240E94A7228093300287E00E9462
:1049A0009824882399F18BE10E949824882351F060
:1049B0009091300291FB882780F921E0822780FBCB
:1049C00091F922C08EE00E949824882351F09091A2
:1049D000300292FB882780F921E0822780FB92F940
:1049E00013C080E10E94982490913002882341F006
:1049F00093FB882780F921E0822780FB93F904C08C
:104A0000892F809580FB90F990933002809130023D
:104A10000E94AB220E94B92290E09093A60280935C
:104A2000A50280EE0E949824882341F08091A5027F
:104A3000982F909590FB80F98093A50289E30E94BE
:104A40009824882359F09091A50291FB882780F93A
:104A500021E0822780FB91F99093A50282EE0E94CB
:104A60009824882359F09091A50292FB882780F919
:104A700021E0822780FB92F99093A50286EE0E94A6
:104A80009824882359F09091A50293FB882780F9F8
:104A900021E0822780FB93F99093A50283EE0E9488
:104AA0009824882359F09091A50294FB882780F9D7
:104AB00021E0822780FB94F99093A50285E30E9470
:104AC0009824882359F09091A50295FB882780F9B6
:104AD00021E0822780FB95F99093A50281E30E9453
:104AE0009824882359F09091A50296FB882780F995
:104AF00021E0822780FB96F99093A50281E10E9434
:104B00009824882359F09091A50297FB882780F973
:104B100021E0822780FB97F99093A5028091A5025E
:104B20000E94BD2287E20E949824C82F8EE10E9435
:104B300098248111C2608FE10E9498248111C46081
:104B400080E20E9498248111C86081E20E9498242A
:104B50008111C06182E20E9498248111C06283E2C7
:104B60000E9498248111C06484E20E9498248823C2
:104B700011F0C06802C0CC2329F08C2F0E94B4220F
:104B80006C2F03C00E94B022682F70E080E090E09C
:104B9000CF910C942720CF9108958091340280FF0B
:104BA0000BC06091070185E0689FB00111247595E5
:104BB0006795759567952AC081FF09C060910701C7
:104BC00085E0689FB0011124759567951FC082FF2D
:104BD00007C06091070185E0689FB001112416C0ED
:104BE000409135024423C9F060910601461788F7C9
:104BF0002091070185E0289F90011124429FC00168
:104C0000439F900D112470E00E94E13260387105DD
:104C100040F46115710539F002C065E070E0862F3F
:104C200008958FE7089581E008958091340280FF10
:104C300008C06091050170E0759567957595679559
:104C400021C081FF06C06091050170E075956795F0
:104C500019C082FF04C06091050170E010C080910E
:104C600035028823C1F0609104018617A0F7909166
:104C70000501989FC001112470E00E94E132603864
:104C8000710528F46115710521F0862F08958FE7CD
:104C9000089581E0089561E070E0F4CF803F21F451
:104CA0000E94CD25819504C0813F29F40E94CD2525
:104CB000809338020895823F21F40E94CD2581958A
:104CC00004C0833F29F40E94CD25809337020895C4
:104CD000893F19F40E94152605C08A3F31F40E94CD
:104CE000152681958093390208958B3F21F40E9407
:104CF0001526819504C08C3F29F40E9415268093C7
:104D00003A020895843F21F480913602816017C0F1
:104D1000853F21F480913602826011C0863F21F4E4
:104D20008091360284600BC0873F21F48091360267
:104D3000886005C0883F31F480913602806180939D
:104D4000360208958D3F21F48091340281600BC0BA
:104D50008E3F21F480913402826005C08F3F29F498
:104D6000809134028460809334020895803F39F446
:104D70008091380287FF6CC01092380269C0813F71
:104D800029F4809138021816BCF362C09091370262
:104D9000823F29F497FF5CC01092370259C0833FCD
:104DA00019F41916CCF354C0893F41F480913902AB
:104DB00018160CF04DC0109239024AC08A3F29F4EF
:104DC0008091390287FF44C0F6CF8B3F39F4809140
:104DD0003A0287FF3DC010923A023AC08C3F29F454
:104DE00080913A021816BCF333C0843F21F48091BD
:104DF00036028E7F17C0853F21F4809136028D7F69
:104E000011C0863F21F4809136028B7F0BC0873F13
:104E100021F480913602877F05C0883F31F480916C
:104E200036028F7E8093360213C08D3F21F480912D
:104E300034028E7F0BC08E3F21F4809134028D7F2F
:104E400005C08F3F29F4809134028B7F8093340218
:104E50008091370281110EC08091380281110AC001
:104E600080913902811106C080913A02811102C0FD
:104E700010923502089586E392E00E947A160E940D
:104E8000DB23909333028093320208951F93CF93D4
:104E9000DF9380913202909133020E94E723409188
:104EA0003502442321F02091080130E006C0209112
:104EB00009015AE0259F900111248217930708F4F5
:104EC0006AC08091370210913802D0913902C091A6
:104ED0003A02811107C0111105C0D11103C0CC23C2
:104EE00009F459C04F3F19F04F5F4093350218162F
:104EF00024F40E94CD25809337028091370287FFEA
:104F000005C00E94CD25819580933702111624F4A7
:104F10000E94CD25809338028091380287FF05C01A
:104F20000E94CD258195809338022091370222235B
:104F300079F040913802442359F055EB2503900154
:104F40001124309337024503C00111249093380295
:104F50001D1624F40E94152680933902809139028F
:104F600087FF05C00E9415268195809339021C1683
:104F700024F40E94152680933A0280913A0287FF1A
:104F800005C00E941526819580933A02DF91CF914A
:104F90001F910C943B27DF91CF911F910895E6E379
:104FA000F2E085E0DF011D928A95E9F71092350263
:104FB0001092340208950E949C22811102C00E9426
:104FC00076220E94C2228093A702282F269530E0E5
:104FD0002630310524F081708A608093A702809189
:104FE000A70280FF02C0869501C080E00C94BC0B34
:104FF0002091A702322F3695832F90E0059744F435
:1050000091E0930F990F822F8170892B8093A702D3
:105010008091A70281608093A7020E94C62280919E
:10502000A70286950C94BC0B8091A702982F9695A9
:1050300091F09158990F8170892B8093A7028E7FF0
:1050400091E009F490E08091A70290FB80F98093B1
:10505000A7020E94C6228091A70286950C94BC0BE1
:105060008091A702982F909590FB80F98093A702DA
:10507000813019F483E08093A7028091A7020E94F7
:10508000C6228091A70280FF02C0869501C080E001
:105090000C94BC0B3091A702232F26952F5F2F77FE
:1050A000822F90E0317006972CF4220F232B20934F
:1050B000A70202C03093A7028091A7028E7F91E0E1
:1050C00009F490E08091A70290FB80F98093A702F9
:1050D0000E94C6228091A70286950C94BC0B863054
:1050E00008F085E0880F9091A7029170982B90931B
:1050F000A7029E7F21E009F420E08091A70220FB17
:1051000080F98093A7020E94C6228091A70286950B
:105110000C94BC0B80915B0208950F931F93CF9367
:10512000DF9300D01F92CDB7DEB78C010E94032B16
:10513000823011F0843019F583E089831B830A8360
:105140008093E9008FEF9091E800815095FD06C0B3
:1051500095ED9A95F1F700008111F5CF8091E80067
:1051600085FF0DC040E050E063E070E0CE010196A5
:105170000E94202B8091E8008E778093E8000F90AA
:105180000F900F90DF91CF911F910F910895CF93C2
:10519000DF9300D01F92CDB7DEB72091AC02243050
:1051A00031F522E02983805891099B838A8383E02B
:1051B0008093E9008FEF9091E800815095FD06C043
:1051C00095ED9A95F1F700008111F5CF8091E800F7
:1051D00085FF0DC040E050E063E070E0CE01019635
:1051E0000E94202B8091E8008E778093E8000F903A
:1051F0000F900F90DF91CF910895CF93DF93EC0143
:105200000E94032B823011F08430F9F482E0809305
:10521000E9008FEF9091E800815095FD06C095ED73
:105220009A95F1F700008111F5CF8091E80085FF94
:105230000CC040E050E065E070E0CE010E94202B01
:105240008091E8008E778093E800DF91CF910895F8
:10525000CF93DF93EC010E94032B823019F084304E
:1052600009F047C0809114018823E1F08091A502E4
:1052700087FF18C084E08093E9008FEF9091E800E9
:10528000815095FD06C095E19A95F1F700008111D6
:10529000F5CF8091E80085FF2CC040E050E060E24F
:1052A00070E017C081E08093E9008FEF9091E800F3
:1052B000815095FD06C095ED9A95F1F7000081119A
:1052C000F5CF8091E80085FF14C040E050E068E031
:1052D00070E0CE010E94202B8091E8008E778093B1
:1052E000E80080E2FE01ABE3B2E001900D928A9506
:1052F000E1F7DF91CF9108958091AB02811109C050
:105300000E94B22C0E940F2D8091E2008460809355
:10531000E20008951092AB020895089508950C9448
:105320009F2342E061EC81E00E942C2C42E061EC82
:1053300082E00E942C2C42E061EC83E00E942C2C45
:1053400042E261EC84E00C942C2C8091AE0283301C
:1053500009F455C030F4813071F0823009F48EC008
:1053600008958A3009F47AC08B3009F460C089301E
:1053700009F09CC020C08091AD02813A09F096C02E
:105380008091E800877F8093E8008091B10290913E
:10539000B202892B21F060E080E090E003C060E27F
:1053A0008BE392E070E00E94692B8091E8008B779C
:1053B0008093E80008958091AD02813209F076C0B3
:1053C0008091B1029091B202009719F0039709F011
:1053D0006DC08091E800877F8093E8008091E800AD
:1053E00082FD05C08091AC028111F8CF5FC0809131
:1053F000F10080935B028091E8008B7753C080912D
:10540000AD02813A09F052C08091B1029091B2028E
:10541000892B09F04BC08091E800877F8093E800DA
:105420008091E80080FFFCCF8091140136C080910C
:10543000AD028132D9F58091B1029091B202892BEF
:10544000A9F58091E800877F8093E8000E94612C95
:105450008091AF02809314010C94121C8091AD02D4
:10546000813221F58091E800877F8093E8000E94D7
:10547000612C8091B00280935C0208958091AD020E
:10548000813AA1F48091E800877F8093E8008091C1
:10549000E80080FFFCCF80915C028093F100809156
:1054A000E8008E778093E8000C94612C089584B70F
:1054B000877F84BF88E10FB6F894809360001092D4
:1054C00060000FBE80E880936100109261000E942E
:1054D000B2160E94B22C0E940F2D8091E2008460CF
:1054E0008093E20078940E94922F0E94B6168AE080
:1054F00091E00E945E168091AC02853069F40E94B2
:1055000057238091AA028823B1F30E94872388231E
:1055100091F30E940A2BEFCF0E94C0160E94EC1557
:10552000EACF0C94932A292F332723303105A9F091
:105530006CF42130310509F448C02230310509F0FE
:1055400049C08DE690E027E73DE048C021323105B3
:10555000F9F02232310549F13DC09927813091059A
:1055600071F02CF4892BB1F5E3E7FDE00DC082303A
:10557000910541F0039771F5E7E5FDE005C0E9E627
:10558000FDE002C0EDE5FDE0849190E09F0126C0C2
:1055900064307105F8F4FB01EE0FFF1FEB5CFE4F6A
:1055A0002081318189E090E019C06430710590F468
:1055B000FB01EE0FFF1FE35DFE4F20813181FB01F8
:1055C000E75DFE4F808190E009C082E190E024EE2B
:1055D0003DE004C080E090E020E030E0FA0131835B
:1055E000208308950895CF93C82F0E94F22AC09374
:1055F0005D02CF9108958091AC02843011F482E075
:10560000089581E0089580915D02811102C00C949B
:10561000FB2A089580E189BD82E189BD09B400FEBD
:10562000FDCF8091D8008F7D8093D8008091E000DD
:1056300082608093E0008091E00081FDFCCF0895BE
:10564000CF92DF92EF92FF920F931F93CF93DF934E
:105650007C018B01EA010E94822C811131C02097CC
:1056600031F088819981081B190BE80EF91EC12CB5
:10567000D12C0115110519F18091E80085FD14C0A8
:105680008091E8008E778093E800209741F0888130
:1056900099818C0D9D1D9983888385E011C00E949E
:1056A000822C882331F30CC0F70181917F01809314
:1056B000F10001501109FFEFCF1ADF0ADACF80E0C5
:1056C000DF91CF911F910F91FF90EF90DF90CF90DE
:1056D00008952091B3023091B4022617370748F09D
:1056E0006115710539F42091E8002E772093E800C8
:1056F00001C0B901FC0120E061157105B9F180918B
:10570000AC02882309F440C0853009F43FC0809181
:10571000E80083FD3DC08091E80082FF06C08091D3
:10572000E80082FF26C080E008958091E80080FFB5
:10573000E3CF2091F3008091F20090E0922B61156D
:10574000710551F08830910538F421912093F100D2
:10575000615071090196F3CF21E0089709F020E02C
:105760008091E8008E778093E800C6CF2111C7CFE3
:10577000D6CF8091AC02882339F0853039F0809102
:10578000E80083FFCCCF04C082E0089583E0089551
:1057900081E008952091B3023091B40226173707B3
:1057A00048F06115710539F42091E8002E772093B7
:1057B000E80001C0B901FC0120E061157105C1F1EB
:1057C0008091AC02882309F441C0853009F440C0BF
:1057D0008091E80083FD3EC08091E80082FF06C012
:1057E0008091E80082FF27C080E008958091E80062
:1057F00080FFE3CF2091F3008091F20090E0922BA4
:105800006115710559F08830910540F42491209379
:10581000F1003196615071090196F2CF21E00897AD
:1058200009F020E08091E8008E778093E800C5CFF2
:105830002111C6CFD5CF8091AC02882339F08530B5
:1058400039F08091E80083FFCBCF04C082E0089557
:1058500083E0089581E00895982F973058F590934C
:10586000E900981739F07091EC002091ED0050910B
:10587000F00003C0242F762F50E021FF19C0309193
:10588000EB003E7F3093EB003091ED003D7F309395
:10589000ED003091EB0031603093EB007093EC0041
:1058A0002093ED005093F0002091EE0027FF07C0F9
:1058B0009F5FD3CF8F708093E90081E0089580E0EF
:1058C00008958091AD0287FD05C08091E80080FFBA
:1058D0000EC012C08091E80082FD05C08091AC022C
:1058E0008111F8CF08958091E8008B7708C08091EE
:1058F000AC028111EACF08958091E8008E77809301
:10590000E80008958091E4009091E50045E620913B
:10591000EC0020FF21C02091E80020FD21C0209153
:10592000AC02222389F0253089F02091EB0025FD7F
:105930000FC02091E4003091E5002817390739F3B2
:10594000415041F0C901E3CF82E0089583E008951A
:1059500081E0089584E008952091E80022FFDFCFE0
:1059600080E008950E94202D0E94282DE0EEF0E0B6
:10597000808181608083E8EDF0E080818F77808393
:1059800019BCA7EDB0E08C918E7F8C9380818F7EC7
:1059900080831092AB0208950F931F93CF93DF93F0
:1059A0000E94202D0E94282DC8EDD0E088818F779D
:1059B000888388818068888388818F7D888319BCEB
:1059C0001092AC021092A8021092AA021092A902A0
:1059D00000EE10E0F80180818B7F808388818160F8
:1059E000888342E060E080E00E942C2CE1EEF0E051
:1059F00080818E7F8083E2EEF0E080818160808311
:105A0000808188608083F80180818E7F8083888197
:105A100080618883DF91CF911F910F910895E8ED08
:105A2000F0E080818F7E8083E7EDF0E0808181600F
:105A3000808384E082BF81E08093AB020C94CC2C05
:105A4000E8EDF0E080818E7F80831092E20008957F
:105A50001092DA001092E10008951F920F920FB693
:105A60000F9211242F933F934F935F936F937F93E4
:105A70008F939F93AF93BF93EF93FF938091E10038
:105A800082FF0BC08091E20082FF07C08091E1009D
:105A90008B7F8093E1000E94912F8091DA0080FF3C
:105AA0001FC08091D80080FF1BC08091DA008E7FDC
:105AB0008093DA008091D90080FF0DC080E189BD1C
:105AC00082E189BD09B400FEFDCF81E08093AC0284
:105AD0000E947C2905C019BC1092AC020E948A2940
